{"abi":[{"type":"constructor","inputs":[{"name":"_oracle","type":"address","internalType":"address"}],"stateMutability":"nonpayable"},{"type":"function","name":"activeMarket","inputs":[{"name":"","type":"string","internalType":"string"},{"name":"","type":"uint256","internalType":"uint256"}],"outputs":[{"name":"","type":"uint256","internalType":"uint256"}],"stateMutability":"view"},{"type":"function","name":"durations","inputs":[{"name":"","type":"uint256","internalType":"uint256"}],"outputs":[{"name":"","type":"uint256","internalType":"uint256"}],"stateMutability":"view"},{"type":"function","name":"getActiveMarketId","inputs":[{"name":"symbol","type":"string","internalType":"string"},{"name":"tf","type":"uint8","internalType":"enum MarketFactory.Timeframe"}],"outputs":[{"name":"","type":"uint256","internalType":"uint256"}],"stateMutability":"view"},{"type":"function","name":"getHigherProbability","inputs":[{"name":"marketId","type":"uint256","internalType":"uint256"}],"outputs":[{"name":"bps","type":"uint256","internalType":"uint256"}],"stateMutability":"view"},{"type":"function","name":"getMarket","inputs":[{"name":"marketId","type":"uint256","internalType":"uint256"}],"outputs":[{"name":"","type":"tuple","internalType":"struct MarketFactory.Market","components":[{"name":"id","type":"uint256","internalType":"uint256"},{"name":"symbol","type":"string","internalType":"string"},{"name":"timeframe","type":"uint8","internalType":"enum MarketFactory.Timeframe"},{"name":"startTime","type":"uint256","internalType":"uint256"},{"name":"endTime","type":"uint256","internalType":"uint256"},{"name":"strikePrice","type":"uint256","internalType":"uint256"},{"name":"settled","type":"bool","internalType":"bool"},{"name":"higherWon","type":"bool","internalType":"bool"},{"name":"totalHigher","type":"uint256","internalType":"uint256"},{"name":"totalLower","type":"uint256","internalType":"uint256"}]}],"stateMutability":"view"},{"type":"function","name":"getTimeRemaining","inputs":[{"name":"marketId","type":"uint256","internalType":"uint256"}],"outputs":[{"name":"","type":"uint256","internalType":"uint256"}],"stateMutability":"view"},{"type":"function","name":"lpVault","inputs":[],"outputs":[{"name":"","type":"address","internalType":"address"}],"stateMutability":"view"},{"type":"function","name":"markets","inputs":[{"name":"","type":"uint256","internalType":"uint256"}],"outputs":[{"name":"id","type":"uint256","internalType":"uint256"},{"name":"symbol","type":"string","internalType":"string"},{"name":"timeframe","type":"uint8","internalType":"enum MarketFactory.Timeframe"},{"name":"startTime","type":"uint256","internalType":"uint256"},{"name":"endTime","type":"uint256","internalType":"uint256"},{"name":"strikePrice","type":"uint256","internalType":"uint256"},{"name":"settled","type":"bool","internalType":"bool"},{"name":"higherWon","type":"bool","internalType":"bool"},{"name":"totalHigher","type":"uint256","internalType":"uint256"},{"name":"totalLower","type":"uint256","internalType":"uint256"}],"stateMutability":"view"},{"type":"function","name":"nextMarketId","inputs":[],"outputs":[{"name":"","type":"uint256","internalType":"uint256"}],"stateMutability":"view"},{"type":"function","name":"openMarket","inputs":[{"name":"symbol","type":"string","internalType":"string"},{"name":"tf","type":"uint8","internalType":"enum MarketFactory.Timeframe"}],"outputs":[{"name":"marketId","type":"uint256","internalType":"uint256"}],"stateMutability":"nonpayable"},{"type":"function","name":"oracle","inputs":[],"outputs":[{"name":"","type":"address","internalType":"address"}],"stateMutability":"view"},{"type":"function","name":"owner","inputs":[],"outputs":[{"name":"","type":"address","internalType":"address"}],"stateMutability":"view"},{"type":"function","name":"positionManager","inputs":[],"outputs":[{"name":"","type":"address","internalType":"address"}],"stateMutability":"view"},{"type":"function","name":"recordPosition","inputs":[{"name":"marketId","type":"uint256","internalType":"uint256"},{"name":"higher","type":"bool","internalType":"bool"},{"name":"amount","type":"uint256","internalType":"uint256"}],"outputs":[],"stateMutability":"nonpayable"},{"type":"function","name":"setContracts","inputs":[{"name":"_pm","type":"address","internalType":"address"},{"name":"_vault","type":"address","internalType":"address"},{"name":"_settlement","type":"address","internalType":"address"}],"outputs":[],"stateMutability":"nonpayable"},{"type":"function","name":"settleMarket","inputs":[{"name":"marketId","type":"uint256","internalType":"uint256"},{"name":"higherWon","type":"bool","internalType":"bool"},{"name":"settlementPrice","type":"uint256","internalType":"uint256"}],"outputs":[],"stateMutability":"nonpayable"},{"type":"function","name":"settlementEngine","inputs":[],"outputs":[{"name":"","type":"address","internalType":"address"}],"stateMutability":"view"},{"type":"event","name":"MarketCreated","inputs":[{"name":"marketId","type":"uint256","indexed":true,"internalType":"uint256"},{"name":"symbol","type":"string","indexed":false,"internalType":"string"},{"name":"timeframe","type":"uint8","indexed":false,"internalType":"enum MarketFactory.Timeframe"},{"name":"startTime","type":"uint256","indexed":false,"internalType":"uint256"},{"name":"endTime","type":"uint256","indexed":false,"internalType":"uint256"},{"name":"strikePrice","type":"uint256","indexed":false,"internalType":"uint256"}],"anonymous":false},{"type":"event","name":"MarketSettled","inputs":[{"name":"marketId","type":"uint256","indexed":true,"internalType":"uint256"},{"name":"higherWon","type":"bool","indexed":false,"internalType":"bool"},{"name":"settlementPrice","type":"uint256","indexed":false,"internalType":"uint256"}],"anonymous":false}],"bytecode":{"object":"0x6080346100e457610fea38819003916001600160401b0391601f8401601f1916820190838211838310176100d057849160405282396020818194810103126100e457516001600160a01b03811692908390036100e4576001916001600555604051906060820190828210908211176100d057604052603c815261012c602082015261038460408201525f5b600381106100ba578460018060a01b031933815f5416175f556003541617600355604051610f0190816100e98239f35b815161ffff16600882015590820190830161008a565b634e487b7160e01b5f52604160045260245ffd5b5f80fdfe60806040526004361015610011575f80fd5b60e05f35811c90816321d93c8614610b7d5781632f86736714610b55578163406ef2ef14610b38578163506034e114610a3c578163791b98bc14610a145781637dc0d1d0146109ec5781638cd42991146109ce5781638da5cb5b146109a75781639e4f9a4614610586578163b1283e77146104cc578163b3066d491461041d578163bc20a7af146103f1578163df7975cc146102eb578163e6d0919d146102c3578163eb44fdd31461015957508063ef9c348c146101015763f170fe45146100d7575f80fd5b346100fd5760203660031901126100fd5760206100f5600435610e86565b604051908152f35b5f80fd5b346100fd57602061011136610cc1565b92909182604051938492833781016007815203019020906003811015610145575f52602052602060405f2054604051908152f35b634e487b7160e01b5f52602160045260245ffd5b346100fd57602090816003193601126100fd576040519061017982610bf8565b5f82526060838301525f60408301525f60608301525f60808301525f60a08301525f60c08301525f81830152610100905f828401525f610120809401526004355f526006845260405f2091604051936101d185610bf8565b83548552846101e260018601610d50565b9287820193845260ff60028701541695610200604084019788610e7a565b6003810154956060840196875260048201549160808501928352600581015460a08601908152600682015493600860c088019360ff87161515855260ff868a0197831c16151587528760078201549901988952015498888d01998a526040518e819f9e829f83525191015251996102958d606061028b6101409e8f6040850152610160840190610df2565b9e51910190610e17565b5160808d01525160a08c01525160c08b01525115159089015251151590870152519085015251908301520390f35b346100fd575f3660031901126100fd576004546040516001600160a01b039091168152602090f35b346100fd576102f936610c9e565b6001549092906001600160a01b031633036103bf575f52600660205260405f209060ff60068301541661038c576004820154421015610359571561034a5760076103469101918254610e4d565b9055005b60086103469101918254610e4d565b60405162461bcd60e51b815260206004820152600b60248201526a13518e88195e1c1a5c995960aa1b6044820152606490fd5b60405162461bcd60e51b815260206004820152600b60248201526a13518e881cd95d1d1b195960aa1b6044820152606490fd5b60405162461bcd60e51b815260206004820152600a6024820152694d463a206e6f7420504d60b01b6044820152606490fd5b346100fd5760203660031901126100fd5760043560038110156100fd5760209060080154604051908152f35b346100fd5760603660031901126100fd576001600160a01b03600435818116908190036100fd576024358281168091036100fd57604435928084168094036100fd575f54163303610497576bffffffffffffffffffffffff60a01b9182600154161760015581600254161760025560045416176004555f80f35b60405162461bcd60e51b815260206004820152600d60248201526c26a31d103737ba1037bbb732b960991b6044820152606490fd5b346100fd5760203660031901126100fd576004355f52600660205260405f208054906104fa60018201610d50565b9260ff6002830154169160038101549160ff6004830154600584015460068501549160086007870154960154966105536105486040519c8d809d6020610140928392815201528d0190610df2565b9960408c0190610e17565b60608a0152608089015260a0880152818116151560c088015260081c161515908501526101008401526101208301520390f35b346100fd5761059436610cc1565b5f5490926001600160a01b03929183163314801561099a575b15610962576003841015610145576105c9846008015442610e4d565b9260035416916020604051809463524f388960e01b825282600483015281806105f6602482018789610e5a565b03915afa928315610957575f93610923575b5082156108e757600554945f1986146108d357600186016005556040519361062f85610bf8565b86855261063d368486610c37565b602086015261064f8260408701610e7a565b4260608601528560808601528060a08601525f60c08601525f888601525f6101008601525f610120860152865f52600660205260405f209585518755602086015180519067ffffffffffffffff82116108bf5781906106b160018b0154610d18565b601f811161086f575b50602090601f8311600114610804575f926107f9575b50508160011b915f199060031b1c19161760018801555b60408601519660038810156101455760086101207f25dcf9673d33f6619a7df82baf5e3d125ac8c0ed745c38dce1c3227794abd04b9861078b8c9b60209e60ff199160ff8360028a0154169116176002880155606084015160038801556080840151600488015560a08401516005880155600687019160ff60c08601511515918454169116178255830151151561ff00825491151560081b169061ff001916179055565b610100810151600785015501519101556040518486823789818681016007815203019020835f5289528660405f20556107de6107d460405196879660a0885260a0880191610e5a565b938a860190610e17565b426040850152606084015260808301520390a2604051908152f35b015190508b806106d0565b60018b015f908152602081209350601f198516905b818110610857575090846001959493921061083f575b505050811b0160018801556106e7565b01515f1960f88460031b161c191690558b808061082f565b92936020600181928786015181550195019301610819565b90915060018a015f5260205f20601f840160051c8101602085106108b8575b90849392915b601f830160051c820181106108aa5750506106ba565b5f8155859450600101610894565b508061088e565b634e487b7160e01b5f52604160045260245ffd5b634e487b7160e01b5f52601160045260245ffd5b60405162461bcd60e51b81526020600482015260146024820152734d463a20626164206f7261636c6520707269636560601b6044820152606490fd5b9092506020813d60201161094f575b8161093f60209383610c15565b810103126100fd57519186610608565b3d9150610932565b6040513d5f823e3d90fd5b60405162461bcd60e51b815260206004820152601060248201526f13518e881d5b985d5d1a1bdc9a5e995960821b6044820152606490fd5b50826004541633146105ad565b346100fd575f3660031901126100fd575f546040516001600160a01b039091168152602090f35b346100fd5760203660031901126100fd5760206100f5600435610e24565b346100fd575f3660031901126100fd576003546040516001600160a01b039091168152602090f35b346100fd575f3660031901126100fd576001546040516001600160a01b039091168152602090f35b346100fd57610a4a36610c9e565b6004546001600160a01b03163303610afe57825f526006602052600660405f20019182549160ff8316610ac35761ffff1990921681151560081b61ff0016176001179092557f195138978e962c13c7e785f5f042157f64d804c10e804a69bd58725421d4351c91604091825191151582526020820152a2005b60405162461bcd60e51b815260206004820152601360248201527213518e88185b1c9958591e481cd95d1d1b1959606a1b6044820152606490fd5b60405162461bcd60e51b815260206004820152601260248201527113518e881b9bdd081cd95d1d1b195b595b9d60721b6044820152606490fd5b346100fd575f3660031901126100fd576020600554604051908152f35b346100fd575f3660031901126100fd576002546040516001600160a01b039091168152602090f35b346100fd5760403660031901126100fd5760043567ffffffffffffffff81116100fd57366023820112156100fd576020610bc4610bd7923690602481600401359101610c37565b8160405193828580945193849201610c7d565b810160078152030190206024355f52602052602060405f2054604051908152f35b610140810190811067ffffffffffffffff8211176108bf57604052565b90601f8019910116810190811067ffffffffffffffff8211176108bf57604052565b92919267ffffffffffffffff82116108bf5760405191610c61601f8201601f191660200184610c15565b8294818452818301116100fd578281602093845f960137010152565b5f5b838110610c8e5750505f910152565b8181015183820152602001610c7f565b60609060031901126100fd576004359060243580151581036100fd579060443590565b9060406003198301126100fd5760043567ffffffffffffffff928382116100fd57806023830112156100fd5781600401359384116100fd57602484830101116100fd57602401919060243560038110156100fd5790565b90600182811c92168015610d46575b6020831014610d3257565b634e487b7160e01b5f52602260045260245ffd5b91607f1691610d27565b9060405191825f8254610d6281610d18565b908184526020946001916001811690815f14610dd05750600114610d92575b505050610d9092500383610c15565b565b5f90815285812095935091905b818310610db8575050610d9093508201015f8080610d81565b85548884018501529485019487945091830191610d9f565b92505050610d9094925060ff191682840152151560051b8201015f8080610d81565b90602091610e0b81518092818552858086019101610c7d565b601f01601f1916010190565b9060038210156101455752565b5f526006602052600460405f20015480421015610e48574281039081116108d35790565b505f90565b919082018092116108d357565b908060209392818452848401375f828201840152601f01601f1916010190565b60038210156101455752565b5f52600660205260405f20610ea46008600783015492015482610e4d565b908115610ec357612710908181029181830414901517156108d3570490565b50506113889056fea2646970667358221220da04632dd7938137d050e45a95fdfe44e34e697555b4084a188ea5fc64d9f07664736f6c63430008180033","linkReferences":{}},"methodIdentifiers":{"activeMarket(string,uint256)":"21d93c86","durations(uint256)":"bc20a7af","getActiveMarketId(string,uint8)":"ef9c348c","getHigherProbability(uint256)":"f170fe45","getMarket(uint256)":"eb44fdd3","getTimeRemaining(uint256)":"8cd42991","lpVault()":"2f867367","markets(uint256)":"b1283e77","nextMarketId()":"406ef2ef","openMarket(string,uint8)":"9e4f9a46","oracle()":"7dc0d1d0","owner()":"8da5cb5b","positionManager()":"791b98bc","recordPosition(uint256,bool,uint256)":"df7975cc","setContracts(address,address,address)":"b3066d49","settleMarket(uint256,bool,uint256)":"506034e1","settlementEngine()":"e6d0919d"},"id":29}