{"abi":[{"type":"constructor","inputs":[{"name":"_oracle","type":"address","internalType":"address"}],"stateMutability":"nonpayable"},{"type":"function","name":"activeMarket","inputs":[{"name":"","type":"string","internalType":"string"},{"name":"","type":"uint256","internalType":"uint256"}],"outputs":[{"name":"","type":"uint256","internalType":"uint256"}],"stateMutability":"view"},{"type":"function","name":"durations","inputs":[{"name":"","type":"uint256","internalType":"uint256"}],"outputs":[{"name":"","type":"uint256","internalType":"uint256"}],"stateMutability":"view"},{"type":"function","name":"getActiveMarketId","inputs":[{"name":"symbol","type":"string","internalType":"string"},{"name":"tf","type":"uint8","internalType":"enum MarketFactory.Timeframe"}],"outputs":[{"name":"","type":"uint256","internalType":"uint256"}],"stateMutability":"view"},{"type":"function","name":"getHigherProbability","inputs":[{"name":"marketId","type":"uint256","internalType":"uint256"}],"outputs":[{"name":"bps","type":"uint256","internalType":"uint256"}],"stateMutability":"view"},{"type":"function","name":"getMarket","inputs":[{"name":"marketId","type":"uint256","internalType":"uint256"}],"outputs":[{"name":"","type":"tuple","internalType":"struct MarketFactory.Market","components":[{"name":"id","type":"uint256","internalType":"uint256"},{"name":"symbol","type":"string","internalType":"string"},{"name":"timeframe","type":"uint8","internalType":"enum MarketFactory.Timeframe"},{"name":"startTime","type":"uint256","internalType":"uint256"},{"name":"endTime","type":"uint256","internalType":"uint256"},{"name":"strikePrice","type":"uint256","internalType":"uint256"},{"name":"settled","type":"bool","internalType":"bool"},{"name":"higherWon","type":"bool","internalType":"bool"},{"name":"totalHigher","type":"uint256","internalType":"uint256"},{"name":"totalLower","type":"uint256","internalType":"uint256"}]}],"stateMutability":"view"},{"type":"function","name":"getTimeRemaining","inputs":[{"name":"marketId","type":"uint256","internalType":"uint256"}],"outputs":[{"name":"","type":"uint256","internalType":"uint256"}],"stateMutability":"view"},{"type":"function","name":"lpVault","inputs":[],"outputs":[{"name":"","type":"address","internalType":"address"}],"stateMutability":"view"},{"type":"function","name":"markets","inputs":[{"name":"","type":"uint256","internalType":"uint256"}],"outputs":[{"name":"id","type":"uint256","internalType":"uint256"},{"name":"symbol","type":"string","internalType":"string"},{"name":"timeframe","type":"uint8","internalType":"enum MarketFactory.Timeframe"},{"name":"startTime","type":"uint256","internalType":"uint256"},{"name":"endTime","type":"uint256","internalType":"uint256"},{"name":"strikePrice","type":"uint256","internalType":"uint256"},{"name":"settled","type":"bool","internalType":"bool"},{"name":"higherWon","type":"bool","internalType":"bool"},{"name":"totalHigher","type":"uint256","internalType":"uint256"},{"name":"totalLower","type":"uint256","internalType":"uint256"}],"stateMutability":"view"},{"type":"function","name":"nextMarketId","inputs":[],"outputs":[{"name":"","type":"uint256","internalType":"uint256"}],"stateMutability":"view"},{"type":"function","name":"openMarket","inputs":[{"name":"symbol","type":"string","internalType":"string"},{"name":"tf","type":"uint8","internalType":"enum MarketFactory.Timeframe"}],"outputs":[{"name":"marketId","type":"uint256","internalType":"uint256"}],"stateMutability":"nonpayable"},{"type":"function","name":"oracle","inputs":[],"outputs":[{"name":"","type":"address","internalType":"address"}],"stateMutability":"view"},{"type":"function","name":"owner","inputs":[],"outputs":[{"name":"","type":"address","internalType":"address"}],"stateMutability":"view"},{"type":"function","name":"positionManager","inputs":[],"outputs":[{"name":"","type":"address","internalType":"address"}],"stateMutability":"view"},{"type":"function","name":"recordPosition","inputs":[{"name":"marketId","type":"uint256","internalType":"uint256"},{"name":"higher","type":"bool","internalType":"bool"},{"name":"amount","type":"uint256","internalType":"uint256"}],"outputs":[],"stateMutability":"nonpayable"},{"type":"function","name":"setContracts","inputs":[{"name":"_pm","type":"address","internalType":"address"},{"name":"_vault","type":"address","internalType":"address"},{"name":"_settlement","type":"address","internalType":"address"}],"outputs":[],"stateMutability":"nonpayable"},{"type":"function","name":"settleMarket","inputs":[{"name":"marketId","type":"uint256","internalType":"uint256"},{"name":"higherWon","type":"bool","internalType":"bool"},{"name":"settlementPrice","type":"uint256","internalType":"uint256"}],"outputs":[],"stateMutability":"nonpayable"},{"type":"function","name":"settlementEngine","inputs":[],"outputs":[{"name":"","type":"address","internalType":"address"}],"stateMutability":"view"},{"type":"event","name":"MarketCreated","inputs":[{"name":"marketId","type":"uint256","indexed":true,"internalType":"uint256"},{"name":"symbol","type":"string","indexed":false,"internalType":"string"},{"name":"timeframe","type":"uint8","indexed":false,"internalType":"enum MarketFactory.Timeframe"},{"name":"startTime","type":"uint256","indexed":false,"internalType":"uint256"},{"name":"endTime","type":"uint256","indexed":false,"internalType":"uint256"},{"name":"strikePrice","type":"uint256","indexed":false,"internalType":"uint256"}],"anonymous":false},{"type":"event","name":"MarketSettled","inputs":[{"name":"marketId","type":"uint256","indexed":true,"internalType":"uint256"},{"name":"higherWon","type":"bool","indexed":false,"internalType":"bool"},{"name":"settlementPrice","type":"uint256","indexed":false,"internalType":"uint256"}],"anonymous":false}],"bytecode":{"object":"0x600160055560e0604052603c608090815261012c60a05261038460c0526200002c9060089060036200008f565b5034801562000039575f80fd5b506040516200136c3803806200136c8339810160408190526200005c91620000ee565b5f8054336001600160a01b031991821617909155600380549091166001600160a01b03929092169190911790556200011d565b8260038101928215620000c6579160200282015b82811115620000c6578251829061ffff16905591602001919060010190620000a3565b50620000d4929150620000d8565b5090565b5b80821115620000d4575f8155600101620000d9565b5f60208284031215620000ff575f80fd5b81516001600160a01b038116811462000116575f80fd5b9392505050565b611241806200012b5f395ff3fe608060405234801561000f575f80fd5b5060043610610106575f3560e01c80639e4f9a461161009e578063df7975cc1161006e578063df7975cc1461024d578063e6d0919d14610260578063eb44fdd314610273578063ef9c348c14610293578063f170fe45146102a6575f80fd5b80639e4f9a46146101eb578063b1283e77146101fe578063b3066d4914610227578063bc20a7af1461023a575f80fd5b8063791b98bc116100d9578063791b98bc146101a05780637dc0d1d0146101b35780638cd42991146101c65780638da5cb5b146101d9575f80fd5b806321d93c861461010a5780632f86736714610157578063406ef2ef14610182578063506034e11461018b575b5f80fd5b610144610118366004610c32565b81516020818401810180516007825292820194820194909420919093529091525f908152604090205481565b6040519081526020015b60405180910390f35b60025461016a906001600160a01b031681565b6040516001600160a01b03909116815260200161014e565b61014460055481565b61019e610199366004610ce1565b6102b9565b005b60015461016a906001600160a01b031681565b60035461016a906001600160a01b031681565b6101446101d4366004610d1a565b6103ce565b5f5461016a906001600160a01b031681565b6101446101f9366004610d31565b610405565b61021161020c366004610d1a565b61074c565b60405161014e9a99989796959493929190610e27565b61019e610235366004610ea6565b61082b565b610144610248366004610d1a565b6108b3565b61019e61025b366004610ce1565b6108c9565b60045461016a906001600160a01b031681565b610286610281366004610d1a565b6109e6565b60405161014e9190610ee6565b6101446102a1366004610d31565b610b78565b6101446102b4366004610d1a565b610bc3565b6004546001600160a01b0316331461030d5760405162461bcd60e51b815260206004820152601260248201527113518e881b9bdd081cd95d1d1b195b595b9d60721b60448201526064015b60405180910390fd5b5f8381526006602081905260409091209081015460ff16156103675760405162461bcd60e51b815260206004820152601360248201527213518e88185b1c9958591e481cd95d1d1b1959606a1b6044820152606401610304565b6006810180548415156101000261ffff1990911617600117905560405184907f195138978e962c13c7e785f5f042157f64d804c10e804a69bd58725421d4351c906103c090869086909115158252602082015260400190565b60405180910390a250505050565b5f818152600660205260408120600481015442106103ee57505f92915050565b4281600401546103fe9190610f9b565b9392505050565b5f80546001600160a01b031633148061042857506004546001600160a01b031633145b6104675760405162461bcd60e51b815260206004820152601060248201526f13518e881d5b985d5d1a1bdc9a5e995960821b6044820152606401610304565b5f600883600281111561047c5761047c610df3565b6003811061048c5761048c610fb4565b01549050425f61049c8383610fc8565b60035460405163524f388960e01b81529192505f916001600160a01b039091169063524f3889906104d3908b908b90600401611003565b602060405180830381865afa1580156104ee573d5f803e3d5ffd5b505050506040513d601f19601f820116820180604052508101906105129190611016565b90505f811161055a5760405162461bcd60e51b81526020600482015260146024820152734d463a20626164206f7261636c6520707269636560601b6044820152606401610304565b60058054905f6105698361102d565b91905055945060405180610140016040528086815260200189898080601f0160208091040260200160405190810160405280939291908181526020018383808284375f920191909152505050908252506020018760028111156105ce576105ce610df3565b815260208082018690526040808301869052606083018590525f6080840181905260a0840181905260c0840181905260e0909301839052888352600682529091208251815590820151600182019061062690826110cb565b506040820151816002015f6101000a81548160ff0219169083600281111561065057610650610df3565b0217905550606082015160038201556080820151600482015560a0820151600582015560c082015160068201805460e085015161ffff1990911692151561ff001916929092176101009215158302179055820151600780830191909155610120909201516008909101556040518691906106cd908b908b90611187565b90815260200160405180910390205f8860028111156106ee576106ee610df3565b81526020019081526020015f2081905550847f25dcf9673d33f6619a7df82baf5e3d125ac8c0ed745c38dce1c3227794abd04b89898987878760405161073996959493929190611196565b60405180910390a2505050509392505050565b60066020525f90815260409020805460018201805491929161076d90611045565b80601f016020809104026020016040519081016040528092919081815260200182805461079990611045565b80156107e45780601f106107bb576101008083540402835291602001916107e4565b820191905f5260205f20905b8154815290600101906020018083116107c757829003601f168201915b505050600284015460038501546004860154600587015460068801546007890154600890990154979860ff958616989497509295509093818116936101009092041691908a565b5f546001600160a01b031633146108745760405162461bcd60e51b815260206004820152600d60248201526c26a31d103737ba1037bbb732b960991b6044820152606401610304565b600180546001600160a01b039485166001600160a01b031991821617909155600280549385169382169390931790925560048054919093169116179055565b600881600381106108c2575f80fd5b0154905081565b6001546001600160a01b031633146109105760405162461bcd60e51b815260206004820152600a6024820152694d463a206e6f7420504d60b01b6044820152606401610304565b5f8381526006602081905260409091209081015460ff16156109625760405162461bcd60e51b815260206004820152600b60248201526a13518e881cd95d1d1b195960aa1b6044820152606401610304565b806004015442106109a35760405162461bcd60e51b815260206004820152600b60248201526a13518e88195e1c1a5c995960aa1b6044820152606401610304565b82156109c75781816007015f8282546109bc9190610fc8565b909155506109e09050565b81816008015f8282546109da9190610fc8565b90915550505b50505050565b610a3860408051610140810182525f80825260606020830152909182019081526020015f81526020015f81526020015f81526020015f151581526020015f151581526020015f81526020015f81525090565b60065f8381526020019081526020015f20604051806101400160405290815f8201548152602001600182018054610a6e90611045565b80601f0160208091040260200160405190810160405280929190818152602001828054610a9a90611045565b8015610ae55780601f10610abc57610100808354040283529160200191610ae5565b820191905f5260205f20905b815481529060010190602001808311610ac857829003601f168201915b505050918352505060028281015460209092019160ff1690811115610b0c57610b0c610df3565b6002811115610b1d57610b1d610df3565b8152600382015460208201526004820154604082015260058201546060820152600682015460ff8082161515608084015261010090910416151560a0820152600782015460c082015260089091015460e09091015292915050565b5f60078484604051610b8b929190611187565b90815260200160405180910390205f836002811115610bac57610bac610df3565b81526020019081526020015f205490509392505050565b5f818152600660205260408120600881015460078201548391610be591610fc8565b9050805f03610bf957506113889392505050565b808260070154612710610c0c91906111d5565b610c1691906111ec565b949350505050565b634e487b7160e01b5f52604160045260245ffd5b5f8060408385031215610c43575f80fd5b823567ffffffffffffffff80821115610c5a575f80fd5b818501915085601f830112610c6d575f80fd5b813581811115610c7f57610c7f610c1e565b604051601f8201601f19908116603f01168101908382118183101715610ca757610ca7610c1e565b81604052828152886020848701011115610cbf575f80fd5b826020860160208301375f602093820184015298969091013596505050505050565b5f805f60608486031215610cf3575f80fd5b8335925060208401358015158114610d09575f80fd5b929592945050506040919091013590565b5f60208284031215610d2a575f80fd5b5035919050565b5f805f60408486031215610d43575f80fd5b833567ffffffffffffffff80821115610d5a575f80fd5b818601915086601f830112610d6d575f80fd5b813581811115610d7b575f80fd5b876020828501011115610d8c575f80fd5b6020928301955093505084013560038110610da5575f80fd5b809150509250925092565b5f81518084525f5b81811015610dd457602081850181015186830182015201610db8565b505f602082860101526020601f19601f83011685010191505092915050565b634e487b7160e01b5f52602160045260245ffd5b60038110610e2357634e487b7160e01b5f52602160045260245ffd5b9052565b5f6101408c8352806020840152610e408184018d610db0565b915050610e50604083018b610e07565b6060820198909852608081019690965260a086019490945291151560c0850152151560e0840152610100830152610120909101529392505050565b80356001600160a01b0381168114610ea1575f80fd5b919050565b5f805f60608486031215610eb8575f80fd5b610ec184610e8b565b9250610ecf60208501610e8b565b9150610edd60408501610e8b565b90509250925092565b60208152815160208201525f6020830151610140806040850152610f0e610160850183610db0565b91506040850151610f226060860182610e07565b5060608501516080850152608085015160a085015260a085015160c085015260c0850151610f5460e086018215159052565b5060e0850151610100610f6a8187018315159052565b860151610120868101919091529095015193019290925250919050565b634e487b7160e01b5f52601160045260245ffd5b81810381811115610fae57610fae610f87565b92915050565b634e487b7160e01b5f52603260045260245ffd5b80820180821115610fae57610fae610f87565b81835281816020850137505f828201602090810191909152601f909101601f19169091010190565b602081525f610c16602083018486610fdb565b5f60208284031215611026575f80fd5b5051919050565b5f6001820161103e5761103e610f87565b5060010190565b600181811c9082168061105957607f821691505b60208210810361107757634e487b7160e01b5f52602260045260245ffd5b50919050565b601f8211156110c6575f81815260208120601f850160051c810160208610156110a35750805b601f850160051c820191505b818110156110c2578281556001016110af565b5050505b505050565b815167ffffffffffffffff8111156110e5576110e5610c1e565b6110f9816110f38454611045565b8461107d565b602080601f83116001811461112c575f84156111155750858301515b5f19600386901b1c1916600185901b1785556110c2565b5f85815260208120601f198616915b8281101561115a5788860151825594840194600190910190840161113b565b508582101561117757878501515f19600388901b60f8161c191681555b5050505050600190811b01905550565b818382375f9101908152919050565b60a081525f6111a960a08301888a610fdb565b90506111b86020830187610e07565b846040830152836060830152826080830152979650505050505050565b8082028115828204841417610fae57610fae610f87565b5f8261120657634e487b7160e01b5f52601260045260245ffd5b50049056fea264697066735822122052205d7e59090ca1fa74a9cb15ab316e731246b7b88623db56ffc96b4e412dd364736f6c63430008140033","linkReferences":{}},"methodIdentifiers":{"activeMarket(string,uint256)":"21d93c86","durations(uint256)":"bc20a7af","getActiveMarketId(string,uint8)":"ef9c348c","getHigherProbability(uint256)":"f170fe45","getMarket(uint256)":"eb44fdd3","getTimeRemaining(uint256)":"8cd42991","lpVault()":"2f867367","markets(uint256)":"b1283e77","nextMarketId()":"406ef2ef","openMarket(string,uint8)":"9e4f9a46","oracle()":"7dc0d1d0","owner()":"8da5cb5b","positionManager()":"791b98bc","recordPosition(uint256,bool,uint256)":"df7975cc","setContracts(address,address,address)":"b3066d49","settleMarket(uint256,bool,uint256)":"506034e1","settlementEngine()":"e6d0919d"},"id":26}