{"abi":[{"type":"constructor","inputs":[{"name":"_usdc","type":"address","internalType":"address"},{"name":"_factory","type":"address","internalType":"address"}],"stateMutability":"nonpayable"},{"type":"function","name":"closePosition","inputs":[{"name":"positionId","type":"uint256","internalType":"uint256"},{"name":"won","type":"bool","internalType":"bool"},{"name":"payoutAmount","type":"uint256","internalType":"uint256"},{"name":"reason","type":"string","internalType":"string"}],"outputs":[],"stateMutability":"nonpayable"},{"type":"function","name":"factory","inputs":[],"outputs":[{"name":"","type":"address","internalType":"address"}],"stateMutability":"view"},{"type":"function","name":"feeBps","inputs":[],"outputs":[{"name":"","type":"uint256","internalType":"uint256"}],"stateMutability":"view"},{"type":"function","name":"getOpenPositions","inputs":[{"name":"trader","type":"address","internalType":"address"}],"outputs":[{"name":"openIds","type":"uint256[]","internalType":"uint256[]"}],"stateMutability":"view"},{"type":"function","name":"getPosition","inputs":[{"name":"id","type":"uint256","internalType":"uint256"}],"outputs":[{"name":"","type":"tuple","internalType":"struct PositionManager.Position","components":[{"name":"id","type":"uint256","internalType":"uint256"},{"name":"trader","type":"address","internalType":"address"},{"name":"marketId","type":"uint256","internalType":"uint256"},{"name":"higher","type":"bool","internalType":"bool"},{"name":"size","type":"uint256","internalType":"uint256"},{"name":"entryPrice","type":"uint256","internalType":"uint256"},{"name":"openTime","type":"uint256","internalType":"uint256"},{"name":"closed","type":"bool","internalType":"bool"},{"name":"won","type":"bool","internalType":"bool"},{"name":"payout","type":"uint256","internalType":"uint256"},{"name":"stopLossPrice","type":"uint256","internalType":"uint256"},{"name":"takeProfitPrice","type":"uint256","internalType":"uint256"}]}],"stateMutability":"view"},{"type":"function","name":"getTraderPositions","inputs":[{"name":"trader","type":"address","internalType":"address"}],"outputs":[{"name":"","type":"uint256[]","internalType":"uint256[]"}],"stateMutability":"view"},{"type":"function","name":"maxSize","inputs":[],"outputs":[{"name":"","type":"uint256","internalType":"uint256"}],"stateMutability":"view"},{"type":"function","name":"minSize","inputs":[],"outputs":[{"name":"","type":"uint256","internalType":"uint256"}],"stateMutability":"view"},{"type":"function","name":"nextPositionId","inputs":[],"outputs":[{"name":"","type":"uint256","internalType":"uint256"}],"stateMutability":"view"},{"type":"function","name":"openPosition","inputs":[{"name":"marketId","type":"uint256","internalType":"uint256"},{"name":"higher","type":"bool","internalType":"bool"},{"name":"size","type":"uint256","internalType":"uint256"},{"name":"slPrice","type":"uint256","internalType":"uint256"},{"name":"tpPrice","type":"uint256","internalType":"uint256"}],"outputs":[{"name":"positionId","type":"uint256","internalType":"uint256"}],"stateMutability":"nonpayable"},{"type":"function","name":"owner","inputs":[],"outputs":[{"name":"","type":"address","internalType":"address"}],"stateMutability":"view"},{"type":"function","name":"positions","inputs":[{"name":"","type":"uint256","internalType":"uint256"}],"outputs":[{"name":"id","type":"uint256","internalType":"uint256"},{"name":"trader","type":"address","internalType":"address"},{"name":"marketId","type":"uint256","internalType":"uint256"},{"name":"higher","type":"bool","internalType":"bool"},{"name":"size","type":"uint256","internalType":"uint256"},{"name":"entryPrice","type":"uint256","internalType":"uint256"},{"name":"openTime","type":"uint256","internalType":"uint256"},{"name":"closed","type":"bool","internalType":"bool"},{"name":"won","type":"bool","internalType":"bool"},{"name":"payout","type":"uint256","internalType":"uint256"},{"name":"stopLossPrice","type":"uint256","internalType":"uint256"},{"name":"takeProfitPrice","type":"uint256","internalType":"uint256"}],"stateMutability":"view"},{"type":"function","name":"setContracts","inputs":[{"name":"_sltp","type":"address","internalType":"address"},{"name":"_vault","type":"address","internalType":"address"},{"name":"_settlement","type":"address","internalType":"address"}],"outputs":[],"stateMutability":"nonpayable"},{"type":"function","name":"settlementEngine","inputs":[],"outputs":[{"name":"","type":"address","internalType":"address"}],"stateMutability":"view"},{"type":"function","name":"sltp","inputs":[],"outputs":[{"name":"","type":"address","internalType":"address"}],"stateMutability":"view"},{"type":"function","name":"traderPositions","inputs":[{"name":"","type":"address","internalType":"address"},{"name":"","type":"uint256","internalType":"uint256"}],"outputs":[{"name":"","type":"uint256","internalType":"uint256"}],"stateMutability":"view"},{"type":"function","name":"usdc","inputs":[],"outputs":[{"name":"","type":"address","internalType":"contract IERC20"}],"stateMutability":"view"},{"type":"function","name":"vault","inputs":[],"outputs":[{"name":"","type":"address","internalType":"address"}],"stateMutability":"view"},{"type":"event","name":"PositionClosed","inputs":[{"name":"positionId","type":"uint256","indexed":true,"internalType":"uint256"},{"name":"trader","type":"address","indexed":true,"internalType":"address"},{"name":"won","type":"bool","indexed":false,"internalType":"bool"},{"name":"payout","type":"uint256","indexed":false,"internalType":"uint256"},{"name":"reason","type":"string","indexed":false,"internalType":"string"}],"anonymous":false},{"type":"event","name":"PositionOpened","inputs":[{"name":"positionId","type":"uint256","indexed":true,"internalType":"uint256"},{"name":"trader","type":"address","indexed":true,"internalType":"address"},{"name":"marketId","type":"uint256","indexed":true,"internalType":"uint256"},{"name":"higher","type":"bool","indexed":false,"internalType":"bool"},{"name":"size","type":"uint256","indexed":false,"internalType":"uint256"},{"name":"entryPrice","type":"uint256","indexed":false,"internalType":"uint256"},{"name":"slPrice","type":"uint256","indexed":false,"internalType":"uint256"},{"name":"tpPrice","type":"uint256","indexed":false,"internalType":"uint256"}],"anonymous":false},{"type":"error","name":"SafeERC20FailedOperation","inputs":[{"name":"token","type":"address","internalType":"address"}]}],"bytecode":{"object":"0x60806040526001600655620f4240600955633b9aca00600a5560c8600b55348015610028575f80fd5b5060405161156e38038061156e8339810160408190526100479161009d565b5f80546001600160a01b03199081163317909155600580546001600160a01b03948516908316179055600180549290931691161790556100ce565b80516001600160a01b0381168114610098575f80fd5b919050565b5f80604083850312156100ae575f80fd5b6100b783610082565b91506100c560208401610082565b90509250929050565b611493806100db5f395ff3fe608060405234801561000f575f80fd5b5060043610610111575f3560e01c806399fbab881161009e578063c45a01551161006e578063c45a0155146102eb578063e6d0919d146102fe578063eaf1f1e614610311578063eb02c30114610324578063fbfa77cf14610344575f80fd5b806399fbab88146101d1578063b3066d49146102b2578063baf89220146102c5578063bcde914d146102d8575f80fd5b80633e413bee116100e45780633e413bee146101585780635fbbb2ff14610183578063899346c7146101a357806389d8ab4f146101ac5780638da5cb5b146101bf575f80fd5b8063114b0d95146101155780631656b2aa1461013157806324a9d853146101465780632565b1591461014f575b5f80fd5b61011e60095481565b6040519081526020015b60405180910390f35b61014461013f366004610ee1565b610357565b005b61011e600b5481565b61011e600a5481565b60055461016b906001600160a01b031681565b6040516001600160a01b039091168152602001610128565b610196610191366004610f8a565b6104b8565b6040516101289190610faa565b61011e60065481565b61011e6101ba366004610fed565b610521565b5f5461016b906001600160a01b031681565b61024d6101df366004611015565b600760208190525f918252604090912080546001820154600283015460038401546004850154600586015460068701549787015460088801546009890154600a9099015497996001600160a01b0390971698959760ff9586169794969395838116946101009094041692908c565b604080519c8d526001600160a01b03909b1660208d0152998b019890985295151560608a0152608089019490945260a088019290925260c0870152151560e0860152151561010085015261012084015261014083015261016082015261018001610128565b6101446102c036600461102c565b61054c565b60025461016b906001600160a01b031681565b6101966102e6366004610f8a565b6105d4565b60015461016b906001600160a01b031681565b60045461016b906001600160a01b031681565b61011e61031f36600461106c565b610740565b610337610332366004611015565b610c70565b60405161012891906110b0565b60035461016b906001600160a01b031681565b6004546001600160a01b031633148061037a57506002546001600160a01b031633145b6103c05760405162461bcd60e51b815260206004820152601260248201527114134e881b9bdd08185d5d1a1bdc9a5e995960721b60448201526064015b60405180910390fd5b5f8581526007602081905260409091209081015460ff16156104195760405162461bcd60e51b815260206004820152601260248201527114134e88185b1c9958591e4818db1bdcd95960721b60448201526064016103b7565b6007810180548615156101000261ffff1990911617600117905560088101849055831561045f57600181015460055461045f916001600160a01b03918216911686610d8c565b60018101546040516001600160a01b039091169087907fde8fdee0d5d732e36f2d9e3015e6015834050daf1c595249a1cbb7a6f2e4c3dc906104a890899089908990899061115a565b60405180910390a3505050505050565b6001600160a01b0381165f9081526008602090815260409182902080548351818402810184019094528084526060939283018282801561051557602002820191905f5260205f20905b815481526020019060010190808311610501575b50505050509050919050565b6008602052815f5260405f20818154811061053a575f80fd5b905f5260205f20015f91509150505481565b5f546001600160a01b031633146105955760405162461bcd60e51b815260206004820152600d60248201526c28269d103737ba1037bbb732b960991b60448201526064016103b7565b600280546001600160a01b039485166001600160a01b031991821617909155600380549385169382169390931790925560048054919093169116179055565b6001600160a01b0381165f908152600860205260408120606091805b82548110156106535760075f84838154811061060e5761060e611198565b5f918252602080832090910154835282019290925260400190206007015460ff16610641578161063d816111c0565b9250505b8061064b816111c0565b9150506105f0565b508067ffffffffffffffff81111561066d5761066d6111d8565b604051908082528060200260200182016040528015610696578160200160208202803683370190505b5092505f805b83548110156107375760075f8583815481106106ba576106ba611198565b5f918252602080832090910154835282019290925260400190206007015460ff16610725578381815481106106f1576106f1611198565b905f5260205f200154858380610706906111c0565b94508151811061071857610718611198565b6020026020010181815250505b8061072f816111c0565b91505061069c565b50505050919050565b5f60095484101580156107555750600a548411155b6107945760405162461bcd60e51b815260206004820152601060248201526f504d3a20696e76616c69642073697a6560801b60448201526064016103b7565b60015460405163eb44fdd360e01b8152600481018890526001600160a01b03909116905f90829063eb44fdd3906024015f60405180830381865afa1580156107de573d5f803e3d5ffd5b505050506040513d5f823e601f3d908101601f1916820160405261080591908101906112d6565b90508060c001511561084e5760405162461bcd60e51b815260206004820152601260248201527114134e881b585c9ad95d081cd95d1d1b195960721b60448201526064016103b7565b806080015142106108965760405162461bcd60e51b815260206004820152601260248201527114134e881b585c9ad95d08195e1c1a5c995960721b60448201526064016103b7565b6005546108ae906001600160a01b0316333089610dc6565b5f612710600b54886108c091906113b2565b6108ca91906113cf565b6003546005549192506108ea916001600160a01b03908116911683610d8c565b5f6108f582896113ee565b600680549192505f610906836111c0565b919050559450604051806101800160405280868152602001336001600160a01b031681526020018b81526020018a151581526020018281526020018460a0015181526020014281526020015f151581526020015f151581526020015f81526020018881526020018781525060075f8781526020019081526020015f205f820151815f01556020820151816001015f6101000a8154816001600160a01b0302191690836001600160a01b03160217905550604082015181600201556060820151816003015f6101000a81548160ff0219169083151502179055506080820151816004015560a0820151816005015560c0820151816006015560e0820151816007015f6101000a81548160ff0219169083151502179055506101008201518160070160016101000a81548160ff0219169083151502179055506101208201518160080155610140820151816009015561016082015181600a015590505060085f336001600160a01b03166001600160a01b031681526020019081526020015f2085908060018154018082558091505060019003905f5260205f20015f9091909190915055836001600160a01b031663df7975cc8b8b846040518463ffffffff1660e01b8152600401610ae9939291909283529015156020830152604082015260600190565b5f604051808303815f87803b158015610b00575f80fd5b505af1158015610b12573d5f803e3d5ffd5b505050505f871180610b2357505f86115b8015610b3957506002546001600160a01b031615155b15610ba957600254602084015160405163286f904b60e01b81526001600160a01b039092169163286f904b91610b7b91899133918f908e908e90600401611401565b5f604051808303815f87803b158015610b92575f80fd5b505af1158015610ba4573d5f803e3d5ffd5b505050505b6004805460405163af503ec960e01b81529182018c9052602482018790526001600160a01b03169063af503ec9906044015f604051808303815f87803b158015610bf1575f80fd5b505af1158015610c03573d5f803e3d5ffd5b50505060a080850151604080518d151581526020810186905290810191909152606081018a9052608081018990528c9250339188917ff4e682dbe15b8da4543a391f57792a5d90071582a4c0fd3df1f007ef2c449443910160405180910390a45050505095945050505050565b610cd76040518061018001604052805f81526020015f6001600160a01b031681526020015f81526020015f151581526020015f81526020015f81526020015f81526020015f151581526020015f151581526020015f81526020015f81526020015f81525090565b505f908152600760208181526040928390208351610180810185528154815260018201546001600160a01b031692810192909252600281015493820193909352600383015460ff9081161515606083015260048401546080830152600584015460a0830152600684015460c083015291830154808316151560e08301526101009081900490921615159181019190915260088201546101208201526009820154610140820152600a9091015461016082015290565b610d998383836001610e02565b610dc157604051635274afe760e01b81526001600160a01b03841660048201526024016103b7565b505050565b610dd4848484846001610e64565b610dfc57604051635274afe760e01b81526001600160a01b03851660048201526024016103b7565b50505050565b60405163a9059cbb60e01b5f8181526001600160a01b038616600452602485905291602083604481808b5af1925060015f51148316610e58578383151615610e4c573d5f823e3d81fd5b5f873b113d1516831692505b60405250949350505050565b6040516323b872dd60e01b5f8181526001600160a01b038781166004528616602452604485905291602083606481808c5af1925060015f51148316610ec0578383151615610eb4573d5f823e3d81fd5b5f883b113d1516831692505b604052505f60605295945050505050565b8015158114610ede575f80fd5b50565b5f805f805f60808688031215610ef5575f80fd5b853594506020860135610f0781610ed1565b935060408601359250606086013567ffffffffffffffff80821115610f2a575f80fd5b818801915088601f830112610f3d575f80fd5b813581811115610f4b575f80fd5b896020828501011115610f5c575f80fd5b9699959850939650602001949392505050565b80356001600160a01b0381168114610f85575f80fd5b919050565b5f60208284031215610f9a575f80fd5b610fa382610f6f565b9392505050565b602080825282518282018190525f9190848201906040850190845b81811015610fe157835183529284019291840191600101610fc5565b50909695505050505050565b5f8060408385031215610ffe575f80fd5b61100783610f6f565b946020939093013593505050565b5f60208284031215611025575f80fd5b5035919050565b5f805f6060848603121561103e575f80fd5b61104784610f6f565b925061105560208501610f6f565b915061106360408501610f6f565b90509250925092565b5f805f805f60a08688031215611080575f80fd5b85359450602086013561109281610ed1565b94979496505050506040830135926060810135926080909101359150565b815181526020808301516101808301916110d4908401826001600160a01b03169052565b506040830151604083015260608301516110f2606084018215159052565b506080830151608083015260a083015160a083015260c083015160c083015260e083015161112460e084018215159052565b50610100838101511515908301526101208084015190830152610140808401519083015261016092830151929091019190915290565b841515815283602082015260606040820152816060820152818360808301375f818301608090810191909152601f909201601f191601019392505050565b634e487b7160e01b5f52603260045260245ffd5b634e487b7160e01b5f52601160045260245ffd5b5f600182016111d1576111d16111ac565b5060010190565b634e487b7160e01b5f52604160045260245ffd5b604051610140810167ffffffffffffffff81118282101715611210576112106111d8565b60405290565b5f5b83811015611230578181015183820152602001611218565b50505f910152565b5f82601f830112611247575f80fd5b815167ffffffffffffffff80821115611262576112626111d8565b604051601f8301601f19908116603f0116810190828211818310171561128a5761128a6111d8565b816040528381528660208588010111156112a2575f80fd5b6112b3846020830160208901611216565b9695505050505050565b805160038110610f85575f80fd5b8051610f8581610ed1565b5f602082840312156112e6575f80fd5b815167ffffffffffffffff808211156112fd575f80fd5b908301906101408286031215611311575f80fd5b6113196111ec565b8251815260208301518281111561132e575f80fd5b61133a87828601611238565b60208301525061134c604084016112bd565b6040820152606083015160608201526080830151608082015260a083015160a082015261137b60c084016112cb565b60c082015261138c60e084016112cb565b60e082015261010083810151908201526101209283015192810192909252509392505050565b80820281158282048414176113c9576113c96111ac565b92915050565b5f826113e957634e487b7160e01b5f52601260045260245ffd5b500490565b818103818111156113c9576113c96111ac565b86815260018060a01b038616602082015260c060408201525f85518060c08401526114338160e0850160208a01611216565b941515606083015250608081019290925260a082015260e0601f909201601f19160101939250505056fea2646970667358221220c8378b513734927a7c4df32b192b45c026b0287a89d91ecdb57f1a5bdc17131264736f6c63430008140033","linkReferences":{}},"methodIdentifiers":{"closePosition(uint256,bool,uint256,string)":"1656b2aa","factory()":"c45a0155","feeBps()":"24a9d853","getOpenPositions(address)":"bcde914d","getPosition(uint256)":"eb02c301","getTraderPositions(address)":"5fbbb2ff","maxSize()":"2565b159","minSize()":"114b0d95","nextPositionId()":"899346c7","openPosition(uint256,bool,uint256,uint256,uint256)":"eaf1f1e6","owner()":"8da5cb5b","positions(uint256)":"99fbab88","setContracts(address,address,address)":"b3066d49","settlementEngine()":"e6d0919d","sltp()":"baf89220","traderPositions(address,uint256)":"89d8ab4f","usdc()":"3e413bee","vault()":"fbfa77cf"},"id":28}