{"abi":[{"type":"constructor","inputs":[{"name":"_usdc","type":"address","internalType":"address"},{"name":"_factory","type":"address","internalType":"address"}],"stateMutability":"nonpayable"},{"type":"function","name":"closePosition","inputs":[{"name":"positionId","type":"uint256","internalType":"uint256"},{"name":"won","type":"bool","internalType":"bool"},{"name":"payoutAmount","type":"uint256","internalType":"uint256"},{"name":"reason","type":"string","internalType":"string"}],"outputs":[],"stateMutability":"nonpayable"},{"type":"function","name":"factory","inputs":[],"outputs":[{"name":"","type":"address","internalType":"address"}],"stateMutability":"view"},{"type":"function","name":"feeBps","inputs":[],"outputs":[{"name":"","type":"uint256","internalType":"uint256"}],"stateMutability":"view"},{"type":"function","name":"getOpenPositions","inputs":[{"name":"trader","type":"address","internalType":"address"}],"outputs":[{"name":"openIds","type":"uint256[]","internalType":"uint256[]"}],"stateMutability":"view"},{"type":"function","name":"getPosition","inputs":[{"name":"id","type":"uint256","internalType":"uint256"}],"outputs":[{"name":"","type":"tuple","internalType":"struct PositionManager.Position","components":[{"name":"id","type":"uint256","internalType":"uint256"},{"name":"trader","type":"address","internalType":"address"},{"name":"marketId","type":"uint256","internalType":"uint256"},{"name":"higher","type":"bool","internalType":"bool"},{"name":"size","type":"uint256","internalType":"uint256"},{"name":"entryPrice","type":"uint256","internalType":"uint256"},{"name":"openTime","type":"uint256","internalType":"uint256"},{"name":"closed","type":"bool","internalType":"bool"},{"name":"won","type":"bool","internalType":"bool"},{"name":"payout","type":"uint256","internalType":"uint256"},{"name":"stopLossPrice","type":"uint256","internalType":"uint256"},{"name":"takeProfitPrice","type":"uint256","internalType":"uint256"}]}],"stateMutability":"view"},{"type":"function","name":"getTraderPositions","inputs":[{"name":"trader","type":"address","internalType":"address"}],"outputs":[{"name":"","type":"uint256[]","internalType":"uint256[]"}],"stateMutability":"view"},{"type":"function","name":"maxSize","inputs":[],"outputs":[{"name":"","type":"uint256","internalType":"uint256"}],"stateMutability":"view"},{"type":"function","name":"minSize","inputs":[],"outputs":[{"name":"","type":"uint256","internalType":"uint256"}],"stateMutability":"view"},{"type":"function","name":"nextPositionId","inputs":[],"outputs":[{"name":"","type":"uint256","internalType":"uint256"}],"stateMutability":"view"},{"type":"function","name":"openPosition","inputs":[{"name":"marketId","type":"uint256","internalType":"uint256"},{"name":"higher","type":"bool","internalType":"bool"},{"name":"size","type":"uint256","internalType":"uint256"},{"name":"slPrice","type":"uint256","internalType":"uint256"},{"name":"tpPrice","type":"uint256","internalType":"uint256"}],"outputs":[{"name":"positionId","type":"uint256","internalType":"uint256"}],"stateMutability":"nonpayable"},{"type":"function","name":"owner","inputs":[],"outputs":[{"name":"","type":"address","internalType":"address"}],"stateMutability":"view"},{"type":"function","name":"positions","inputs":[{"name":"","type":"uint256","internalType":"uint256"}],"outputs":[{"name":"id","type":"uint256","internalType":"uint256"},{"name":"trader","type":"address","internalType":"address"},{"name":"marketId","type":"uint256","internalType":"uint256"},{"name":"higher","type":"bool","internalType":"bool"},{"name":"size","type":"uint256","internalType":"uint256"},{"name":"entryPrice","type":"uint256","internalType":"uint256"},{"name":"openTime","type":"uint256","internalType":"uint256"},{"name":"closed","type":"bool","internalType":"bool"},{"name":"won","type":"bool","internalType":"bool"},{"name":"payout","type":"uint256","internalType":"uint256"},{"name":"stopLossPrice","type":"uint256","internalType":"uint256"},{"name":"takeProfitPrice","type":"uint256","internalType":"uint256"}],"stateMutability":"view"},{"type":"function","name":"setContracts","inputs":[{"name":"_sltp","type":"address","internalType":"address"},{"name":"_vault","type":"address","internalType":"address"},{"name":"_settlement","type":"address","internalType":"address"}],"outputs":[],"stateMutability":"nonpayable"},{"type":"function","name":"settlementEngine","inputs":[],"outputs":[{"name":"","type":"address","internalType":"address"}],"stateMutability":"view"},{"type":"function","name":"sltp","inputs":[],"outputs":[{"name":"","type":"address","internalType":"address"}],"stateMutability":"view"},{"type":"function","name":"traderPositions","inputs":[{"name":"","type":"address","internalType":"address"},{"name":"","type":"uint256","internalType":"uint256"}],"outputs":[{"name":"","type":"uint256","internalType":"uint256"}],"stateMutability":"view"},{"type":"function","name":"transferLoserFundsToVault","inputs":[{"name":"amount","type":"uint256","internalType":"uint256"},{"name":"vaultAddr","type":"address","internalType":"address"}],"outputs":[],"stateMutability":"nonpayable"},{"type":"function","name":"usdc","inputs":[],"outputs":[{"name":"","type":"address","internalType":"contract IERC20"}],"stateMutability":"view"},{"type":"function","name":"vault","inputs":[],"outputs":[{"name":"","type":"address","internalType":"address"}],"stateMutability":"view"},{"type":"event","name":"PositionClosed","inputs":[{"name":"positionId","type":"uint256","indexed":true,"internalType":"uint256"},{"name":"trader","type":"address","indexed":true,"internalType":"address"},{"name":"won","type":"bool","indexed":false,"internalType":"bool"},{"name":"payout","type":"uint256","indexed":false,"internalType":"uint256"},{"name":"reason","type":"string","indexed":false,"internalType":"string"}],"anonymous":false},{"type":"event","name":"PositionOpened","inputs":[{"name":"positionId","type":"uint256","indexed":true,"internalType":"uint256"},{"name":"trader","type":"address","indexed":true,"internalType":"address"},{"name":"marketId","type":"uint256","indexed":true,"internalType":"uint256"},{"name":"higher","type":"bool","indexed":false,"internalType":"bool"},{"name":"size","type":"uint256","indexed":false,"internalType":"uint256"},{"name":"entryPrice","type":"uint256","indexed":false,"internalType":"uint256"},{"name":"slPrice","type":"uint256","indexed":false,"internalType":"uint256"},{"name":"tpPrice","type":"uint256","indexed":false,"internalType":"uint256"}],"anonymous":false},{"type":"error","name":"SafeERC20FailedOperation","inputs":[{"name":"token","type":"address","internalType":"address"}]}],"bytecode":{"object":"0x6080346100a957601f6113b438819003918201601f19168301916001600160401b038311848410176100ad5780849260409485528339810103126100a957610052602061004b836100c1565b92016100c1565b906001600655620f4240600955633b9aca00600a5560c8600b5560018060a01b03199133835f5416175f5560018060a01b03809216836005541617600555169060015416176001556040516112de90816100d68239f35b5f80fd5b634e487b7160e01b5f52604160045260245ffd5b51906001600160a01b03821682036100a95756fe60806040526004361015610011575f80fd5b5f803560e01c80630b48546c14611020578063114b0d95146110035780631656b2aa14610e8057806324a9d85314610e635780632565b15914610e465780633e413bee14610e1e5780635fbbb2ff14610d9c578063899346c714610d7f57806389d8ab4f14610d285780638da5cb5b14610d0157806399fbab8814610c49578063b3066d4914610b9f578063baf8922014610b77578063bcde914d14610a32578063c45a015514610a0a578063e6d0919d146109e2578063eaf1f1e6146102ac578063eb02c301146101165763fbfa77cf146100eb575f80fd5b346101135780600319360112610113576003546040516001600160a01b039091168152602090f35b80fd5b50346101135760203660031901126101135760408161018092610160835161013d81611183565b82815282602082015282858201528260608201528260808201528260a08201528260c08201528260e08201528261010082015282610120820152826101408201520152600435815260076020522061016060405161019a81611183565b600a83549384835260018060a01b0360018201541660208401526002810154604084015260ff6003820154161515606084015260048101546080840152600581015460a0840152600681015460c084015260ff6007820154818116151560e086015260081c1615156101008401526008810154610120840152600981015461014084015201548282015260405192835260018060a01b036020820151166020840152604081015160408401526060810151151560608401526080810151608084015260a081015160a084015260c081015160c084015260e0810151151560e084015261010081015115156101008401526101208101516101208401526101408101516101408401520151610160820152f35b50346107695760a0366003190112610769576102c66110e3565b6009546044351015806109d4575b1561099c5760015460405163eb44fdd360e01b81526004803590820152926001600160a01b0390911691905f84602481865afa93841561075e575f9461083d575b5060c08401516108035760808401514210156107c9576005546040516323b872dd60e01b5f908152336004523060245260448035905290916001600160a01b03169060209060648180855af160015f51148116156107aa575b826040525f60605215610795575050600b546044358082029181159183041417156107815760055460035461271090920492916103b99184916001600160a01b03908116911661122a565b6044358281031161078157600654936103d1856111d6565b60065560a0860151604051906103e682611183565b868252336020830152600435604083015285151560608301528460443503608083015260a08201524260c08201525f60e08201525f6101008201525f610120820152606435610140820152608435610160820152855f526007602052600a61016060405f2092805184556001840160018060a01b036020830151166bffffffffffffffffffffffff60a01b825416179055604081015160028501556104a060608201511515600386019060ff801983541691151516179055565b6080810151600485015560a0810151600585015560c081015160068501556104fd600785016104e160e08401511515829060ff801983541691151516179055565b610100830151815461ff00191690151560081b61ff0016179055565b610120810151600885015561014081015160098501550151910155335f52600860205260405f2080546801000000000000000081101561076d576105469160018201815561112d565b81549060031b9087821b915f19901b1916179055803b15610769575f80916064604051809481936337de5d7360e21b835260043560048401528915156024840152886044350360448401525af1801561075e5761074d575b5060643515801590610742575b8061072e575b61067f575b6004546001600160a01b0316803b1561067b5781809160446040518094819363af503ec960e01b835260043560048401528a60248401525af180156106705761065c575b505060a06020940151906040519215158352604435038483015260408201526064356060820152608435608082015260043590827ff4e682dbe15b8da4543a391f57792a5d90071582a4c0fd3df1f007ef2c44944360a03393a4604051908152f35b61066682916111a0565b61011357806105fa565b6040513d84823e3d90fd5b5080fd5b60018060a01b03600254166020860151813b1561072a5760e48392839260405194859384809363286f904b60e01b82528c600483015233602483015260c060448301526106db815180928160c4860152602086860191016111fc565b8b15156064830152606435608483015260843560a4830152601f801991011681010301925af1801561067057908291610716575b50506105b6565b61071f906111a0565b61011357805f61070f565b8280fd5b506002546001600160a01b031615156105b1565b5060843515156105ab565b61075791506111a0565b5f8061059e565b6040513d5f823e3d90fd5b5f80fd5b634e487b7160e01b5f52604160045260245ffd5b634e487b7160e01b5f52601160045260245ffd5b635274afe760e01b8252600482015260249150fd5b60018115166107c057813b15153d15161661036e565b823d5f823e3d90fd5b60405162461bcd60e51b815260206004820152601260248201527114134e881b585c9ad95d08195e1c1a5c995960721b6044820152606490fd5b60405162461bcd60e51b815260206004820152601260248201527114134e881b585c9ad95d081cd95d1d1b195960721b6044820152606490fd5b9093503d90815f823e61085082826111b4565b60208183810103126107695780519067ffffffffffffffff821161076957610140928383830182840103126107695760405193848181011067ffffffffffffffff828701111761076d578401604052818301805185526020015167ffffffffffffffff811161076957818301601f82868601010112156107695780848401015167ffffffffffffffff811161076d57604051926108f7601f8301601f1916602001856111b4565b818452840160208284888801010101116107695761091f9160208085019187870101016111fc565b6020840152604082820101516003811015610769576040840152808201606081810151908501526080808201519085015260a080820151908501526109669060c00161121d565b60c084015261097960e08383010161121d565b60e08401520161010081810151908301526101209081015190820152925f610315565b60405162461bcd60e51b815260206004820152601060248201526f504d3a20696e76616c69642073697a6560801b6044820152606490fd5b50600a5460443511156102d4565b34610769575f366003190112610769576004546040516001600160a01b039091168152602090f35b34610769575f366003190112610769576001546040516001600160a01b039091168152602090f35b3461076957602080600319360112610769576001600160a01b03610a546110cd565b165f908152600882526040812080549092825b828110610b345750610a78836111e4565b92610a8660405194856111b4565b808452610a95601f19916111e4565b0136828501375f935f5b838110610ab85760405180610ab487826110f2565b0390f35b610ac2818361112d565b9054600391821b1c5f5260ff600780865260405f2001541615610ae9575b50600101610a9f565b610af6828498939861112d565b9054911b1c95610b05826111d6565b968651831015610b20578460019360051b8801015290610ae0565b634e487b7160e01b5f52603260045260245ffd5b610b3e818661112d565b90549060031b1c5f5260ff600780845260405f2001541615610b63575b600101610a67565b92610b6f6001916111d6565b939050610b5b565b34610769575f366003190112610769576002546040516001600160a01b039091168152602090f35b3461076957606036600319011261076957610bb86110cd565b610bc06110b7565b6001600160a01b0360443581811693929084900361076957815f54163303610c1457816bffffffffffffffffffffffff60a01b93168360025416176002551681600354161760035560045416176004555f80f35b60405162461bcd60e51b815260206004820152600d60248201526c28269d103737ba1037bbb732b960991b6044820152606490fd5b34610769576020366003190112610769576004355f52600760205261018060405f2080549060018060a01b0360018201541690600281015460ff8060038401541660048401546005850154600686015491600787015493600888015496600a60098a0154990154996040519b8c5260208c015260408b0152151560608a0152608089015260a088015260c0870152818116151560e087015260081c161515610100850152610120840152610140830152610160820152f35b34610769575f366003190112610769575f546040516001600160a01b039091168152602090f35b3461076957604036600319011261076957610d416110cd565b6001600160a01b03165f9081526008602052604090208054602435919082101561076957602091610d719161112d565b90546040519160031b1c8152f35b34610769575f366003190112610769576020600654604051908152f35b3461076957602080600319360112610769576001600160a01b03610dbe6110cd565b165f52600860205260405f20906040519081602084549182815201935f5260205f20915f905b828210610e0757610ab485610dfb818903826111b4565b604051918291826110f2565b835486529485019460019384019390910190610de4565b34610769575f366003190112610769576005546040516001600160a01b039091168152602090f35b34610769575f366003190112610769576020600a54604051908152f35b34610769575f366003190112610769576020600b54604051908152f35b3461076957608036600319011261076957600435610e9c6110e3565b606435919060443567ffffffffffffffff8085116107695736602386011215610769578460040135908111610769573660248287010111610769576004546001600160a01b039390841633148015610ff6575b610ef890611142565b845f52600760205260405f2091600783019283549360ff8516610fbc5761ffff1990941683151560081b61ff00161760019081179094557fde8fdee0d5d732e36f2d9e3015e6015834050daf1c595249a1cbb7a6f2e4c3dc956080948392602492919088600882015588610fa2575b015416986040519687951515865260208601526060604086015282606086015201848401375f828201840152601f01601f19168101030190a3005b610fb78984600554168585850154169061122a565b610f67565b60405162461bcd60e51b815260206004820152601260248201527114134e88185b1c9958591e4818db1bdcd95960721b6044820152606490fd5b5060025484163314610eef565b34610769575f366003190112610769576020600954604051908152f35b346107695760403660031901126107695760043561103c6110b7565b6004546001600160a01b039291908316331480156110aa575b61105e90611142565b811561107357611071926005541661122a565b005b60405162461bcd60e51b815260206004820152600f60248201526e14134e881e995c9bc8185b5bdd5b9d608a1b6044820152606490fd5b5060025483163314611055565b602435906001600160a01b038216820361076957565b600435906001600160a01b038216820361076957565b60243590811515820361076957565b60209060206040818301928281528551809452019301915f5b828110611119575050505090565b83518552938101939281019260010161110b565b8054821015610b20575f5260205f2001905f90565b1561114957565b60405162461bcd60e51b815260206004820152601260248201527114134e881b9bdd08185d5d1a1bdc9a5e995960721b6044820152606490fd5b610180810190811067ffffffffffffffff82111761076d57604052565b67ffffffffffffffff811161076d57604052565b90601f8019910116810190811067ffffffffffffffff82111761076d57604052565b5f1981146107815760010190565b67ffffffffffffffff811161076d5760051b60200190565b5f5b83811061120d5750505f910152565b81810151838201526020016111fe565b5190811515820361076957565b60405163a9059cbb60e01b5f9081526001600160a01b039384166004526024949094529260209060448180855af160015f5114811615611289575b836040521561127357505050565b635274afe760e01b835216600482015260249150fd5b600181151661129f57813b15153d151616611265565b833d5f823e3d90fdfea264697066735822122063e4d20f8a385c537ab6a2edcd74e04770a7c4023069c2948e8f8408398b8a6064736f6c63430008180033","linkReferences":{}},"methodIdentifiers":{"closePosition(uint256,bool,uint256,string)":"1656b2aa","factory()":"c45a0155","feeBps()":"24a9d853","getOpenPositions(address)":"bcde914d","getPosition(uint256)":"eb02c301","getTraderPositions(address)":"5fbbb2ff","maxSize()":"2565b159","minSize()":"114b0d95","nextPositionId()":"899346c7","openPosition(uint256,bool,uint256,uint256,uint256)":"eaf1f1e6","owner()":"8da5cb5b","positions(uint256)":"99fbab88","setContracts(address,address,address)":"b3066d49","settlementEngine()":"e6d0919d","sltp()":"baf89220","traderPositions(address,uint256)":"89d8ab4f","transferLoserFundsToVault(uint256,address)":"0b48546c","usdc()":"3e413bee","vault()":"fbfa77cf"},"id":31}