{"abi":[{"type":"constructor","inputs":[{"name":"_usdc","type":"address","internalType":"address"}],"stateMutability":"nonpayable"},{"type":"function","name":"claimInitRewards","inputs":[],"outputs":[],"stateMutability":"nonpayable"},{"type":"function","name":"coverPayout","inputs":[{"name":"amount","type":"uint256","internalType":"uint256"},{"name":"recipient","type":"address","internalType":"address"}],"outputs":[],"stateMutability":"nonpayable"},{"type":"function","name":"deposit","inputs":[{"name":"amount","type":"uint256","internalType":"uint256"}],"outputs":[],"stateMutability":"nonpayable"},{"type":"function","name":"distributeInitRewards","inputs":[{"name":"amount","type":"uint256","internalType":"uint256"}],"outputs":[],"stateMutability":"nonpayable"},{"type":"function","name":"getLPBalance","inputs":[{"name":"lp","type":"address","internalType":"address"}],"outputs":[{"name":"","type":"uint256","internalType":"uint256"}],"stateMutability":"view"},{"type":"function","name":"getVaultBalance","inputs":[],"outputs":[{"name":"","type":"uint256","internalType":"uint256"}],"stateMutability":"view"},{"type":"function","name":"initToken","inputs":[],"outputs":[{"name":"","type":"address","internalType":"contract IERC20"}],"stateMutability":"view"},{"type":"function","name":"owner","inputs":[],"outputs":[{"name":"","type":"address","internalType":"address"}],"stateMutability":"view"},{"type":"function","name":"pendingInitRewards","inputs":[{"name":"","type":"address","internalType":"address"}],"outputs":[{"name":"","type":"uint256","internalType":"uint256"}],"stateMutability":"view"},{"type":"function","name":"positionManager","inputs":[],"outputs":[{"name":"","type":"address","internalType":"address"}],"stateMutability":"view"},{"type":"function","name":"receiveLoserFunds","inputs":[{"name":"amount","type":"uint256","internalType":"uint256"}],"outputs":[],"stateMutability":"nonpayable"},{"type":"function","name":"rewardDebt","inputs":[{"name":"","type":"address","internalType":"address"}],"outputs":[{"name":"","type":"uint256","internalType":"uint256"}],"stateMutability":"view"},{"type":"function","name":"rewardsPerShare","inputs":[],"outputs":[{"name":"","type":"uint256","internalType":"uint256"}],"stateMutability":"view"},{"type":"function","name":"setContracts","inputs":[{"name":"_settlement","type":"address","internalType":"address"},{"name":"_sltp","type":"address","internalType":"address"},{"name":"_pm","type":"address","internalType":"address"},{"name":"_initToken","type":"address","internalType":"address"}],"outputs":[],"stateMutability":"nonpayable"},{"type":"function","name":"settlementEngine","inputs":[],"outputs":[{"name":"","type":"address","internalType":"address"}],"stateMutability":"view"},{"type":"function","name":"shares","inputs":[{"name":"","type":"address","internalType":"address"}],"outputs":[{"name":"","type":"uint256","internalType":"uint256"}],"stateMutability":"view"},{"type":"function","name":"sltpManager","inputs":[],"outputs":[{"name":"","type":"address","internalType":"address"}],"stateMutability":"view"},{"type":"function","name":"totalDeposited","inputs":[],"outputs":[{"name":"","type":"uint256","internalType":"uint256"}],"stateMutability":"view"},{"type":"function","name":"totalShares","inputs":[],"outputs":[{"name":"","type":"uint256","internalType":"uint256"}],"stateMutability":"view"},{"type":"function","name":"usdc","inputs":[],"outputs":[{"name":"","type":"address","internalType":"contract IERC20"}],"stateMutability":"view"},{"type":"function","name":"withdraw","inputs":[{"name":"shareAmount","type":"uint256","internalType":"uint256"}],"outputs":[],"stateMutability":"nonpayable"},{"type":"event","name":"Deposited","inputs":[{"name":"lp","type":"address","indexed":true,"internalType":"address"},{"name":"amount","type":"uint256","indexed":false,"internalType":"uint256"},{"name":"shares","type":"uint256","indexed":false,"internalType":"uint256"}],"anonymous":false},{"type":"event","name":"InitRewardClaimed","inputs":[{"name":"lp","type":"address","indexed":true,"internalType":"address"},{"name":"amount","type":"uint256","indexed":false,"internalType":"uint256"}],"anonymous":false},{"type":"event","name":"PayoutCovered","inputs":[{"name":"recipient","type":"address","indexed":true,"internalType":"address"},{"name":"amount","type":"uint256","indexed":false,"internalType":"uint256"}],"anonymous":false},{"type":"event","name":"Withdrawn","inputs":[{"name":"lp","type":"address","indexed":true,"internalType":"address"},{"name":"amount","type":"uint256","indexed":false,"internalType":"uint256"},{"name":"shares","type":"uint256","indexed":false,"internalType":"uint256"}],"anonymous":false},{"type":"error","name":"SafeERC20FailedOperation","inputs":[{"name":"token","type":"address","internalType":"address"}]}],"bytecode":{"object":"0x608060405234801561000f575f80fd5b50604051610fa8380380610fa883398101604081905261002e91610060565b5f8054336001600160a01b031991821617909155600180549091166001600160a01b039290921691909117905561008d565b5f60208284031215610070575f80fd5b81516001600160a01b0381168114610086575f80fd5b9392505050565b610f0e8061009a5f395ff3fe608060405234801561000f575f80fd5b5060043610610132575f3560e01c8063bf989b6e116100b4578063e323459d11610079578063e323459d14610284578063e66738cd14610297578063e6d0919d146102aa578063ed12e8ef146102bd578063ed2182cb146102c5578063ff50abdc146102d8575f80fd5b8063bf989b6e14610223578063c606a05114610236578063c7e1d0b114610249578063ce7c2ac214610252578063d2258beb14610271575f80fd5b80635873eb9b116100fa5780635873eb9b146101c4578063791b98bc146101e35780638cd390c7146101f65780638da5cb5b146101fe578063b6b55f2514610210575f80fd5b806315f4499c146101365780632e1a7d4d146101685780633a98ef391461017d5780633af8517f146101865780633e413bee14610199575b5f80fd5b610155610144366004610d9f565b60096020525f908152604090205481565b6040519081526020015b60405180910390f35b61017b610176366004610dbf565b6102e1565b005b61015560065481565b61017b610194366004610dbf565b610463565b6001546101ac906001600160a01b031681565b6040516001600160a01b03909116815260200161015f565b6101556101d2366004610d9f565b600b6020525f908152604090205481565b6004546101ac906001600160a01b031681565b61017b61058e565b5f546101ac906001600160a01b031681565b61017b61021e366004610dbf565b6105a2565b61017b610231366004610dd6565b61070f565b6003546101ac906001600160a01b031681565b610155600a5481565b610155610260366004610d9f565b60056020525f908152604090205481565b61015561027f366004610d9f565b6107bf565b61017b610292366004610dbf565b610808565b6008546101ac906001600160a01b031681565b6002546101ac906001600160a01b031681565b610155610895565b61017b6102d3366004610e27565b610904565b61015560075481565b5f811180156102fe5750335f908152600560205260409020548111155b6103435760405162461bcd60e51b81526020600482015260116024820152705661756c743a206261642073686172657360781b60448201526064015b60405180910390fd5b61034c33610aaa565b61035533610ba8565b5f600654600754836103679190610e65565b6103719190610e7c565b335f90815260056020526040812080549293508492909190610394908490610e9b565b925050819055508160065f8282546103ac9190610e9b565b925050819055508060075f8282546103c49190610e9b565b9091555050600a54335f90815260056020526040902054670de0b6b3a7640000916103ee91610e65565b6103f89190610e7c565b335f818152600b6020526040902091909155600154610423916001600160a01b039091169083610c45565b604080518281526020810184905233917f92ccf450a286a957af52509bc1c9939d1a6a481783e142e41e2499f0bb66ebc691015b60405180910390a25050565b5f546001600160a01b031633146104af5760405162461bcd60e51b815260206004820152601060248201526f2b30bab63a1d103737ba1037bbb732b960811b604482015260640161033a565b5f600654116104f05760405162461bcd60e51b815260206004820152600d60248201526c5661756c743a206e6f204c507360981b604482015260640161033a565b6008546001600160a01b031661053f5760405162461bcd60e51b81526020600482015260146024820152732b30bab63a1d1037379024a724aa103a37b5b2b760611b604482015260640161033a565b600854610557906001600160a01b0316333084610c7f565b60065461056c82670de0b6b3a7640000610e65565b6105769190610e7c565b600a5f8282546105869190610eae565b909155505050565b61059733610aaa565b6105a033610ba8565b565b5f81116105e65760405162461bcd60e51b815260206004820152601260248201527115985d5b1d0e881e995c9bc8185b5bdd5b9d60721b604482015260640161033a565b6105ef33610aaa565b600154610607906001600160a01b0316333084610c7f565b5f6006545f14806106185750600754155b61063b5760075460065461062c9084610e65565b6106369190610e7c565b61063d565b815b335f90815260056020526040812080549293508392909190610660908490610eae565b925050819055508060065f8282546106789190610eae565b925050819055508160075f8282546106909190610eae565b9091555050600a54335f90815260056020526040902054670de0b6b3a7640000916106ba91610e65565b6106c49190610e7c565b335f818152600b602090815260409182902093909355805185815292830184905290917f73a19dd210f1a7f902193214c0ee91dd35ee5b4d920cba8d519eca65a7b488ca9101610457565b5f546001600160a01b0316331461075b5760405162461bcd60e51b815260206004820152601060248201526f2b30bab63a1d103737ba1037bbb732b960811b604482015260640161033a565b600280546001600160a01b038087166001600160a01b031992831617909255600380548684169083161790556004805485841692169190911790558116156107b957600880546001600160a01b0319166001600160a01b0383161790555b50505050565b5f6006545f036107d057505f919050565b6006546007546001600160a01b0384165f908152600560205260409020546107f89190610e65565b6108029190610e7c565b92915050565b6002546001600160a01b031633148061082b57506003546001600160a01b031633145b8061084057506004546001600160a01b031633145b6108845760405162461bcd60e51b815260206004820152601560248201527415985d5b1d0e881b9bdd08185d5d1a1bdc9a5e9959605a1b604482015260640161033a565b8060075f8282546105869190610eae565b6001546040516370a0823160e01b81523060048201525f916001600160a01b0316906370a0823190602401602060405180830381865afa1580156108db573d5f803e3d5ffd5b505050506040513d601f19601f820116820180604052508101906108ff9190610ec1565b905090565b6002546001600160a01b031633148061092757506003546001600160a01b031633145b8061093c57506004546001600160a01b031633145b6109805760405162461bcd60e51b815260206004820152601560248201527415985d5b1d0e881b9bdd08185d5d1a1bdc9a5e9959605a1b604482015260640161033a565b6001546040516370a0823160e01b815230600482015283916001600160a01b0316906370a0823190602401602060405180830381865afa1580156109c6573d5f803e3d5ffd5b505050506040513d601f19601f820116820180604052508101906109ea9190610ec1565b1015610a385760405162461bcd60e51b815260206004820152601d60248201527f5661756c743a20696e73756666696369656e74206c6971756964697479000000604482015260640161033a565b8160075410610a58578160075f828254610a529190610e9b565b90915550505b600154610a6f906001600160a01b03168284610c45565b806001600160a01b03167ffda175468a49b8c97b237d14e3f6ed0c23a92e213f1f9392001af74540958c428360405161045791815260200190565b6001600160a01b0381165f9081526005602052604090205415610b5557600a546001600160a01b0382165f908152600560205260408120549091670de0b6b3a764000091610af89190610e65565b610b029190610e7c565b6001600160a01b0383165f908152600b6020526040902054909150610b279082610e9b565b6001600160a01b0383165f9081526009602052604081208054909190610b4e908490610eae565b9091555050505b600a546001600160a01b0382165f90815260056020526040902054670de0b6b3a764000091610b8391610e65565b610b8d9190610e7c565b6001600160a01b039091165f908152600b6020526040902055565b6001600160a01b0381165f908152600960205260409020548015801590610bd957506008546001600160a01b031615155b15610c41576001600160a01b038083165f90815260096020526040812055600854610c0691168383610c45565b816001600160a01b03167f1120cc8744995f5eb3d90098f72e1836055590f40073c76ccf66541ec542a8d68260405161045791815260200190565b5050565b610c528383836001610cb5565b610c7a57604051635274afe760e01b81526001600160a01b038416600482015260240161033a565b505050565b610c8d848484846001610d17565b6107b957604051635274afe760e01b81526001600160a01b038516600482015260240161033a565b60405163a9059cbb60e01b5f8181526001600160a01b038616600452602485905291602083604481808b5af1925060015f51148316610d0b578383151615610cff573d5f823e3d81fd5b5f873b113d1516831692505b60405250949350505050565b6040516323b872dd60e01b5f8181526001600160a01b038781166004528616602452604485905291602083606481808c5af1925060015f51148316610d73578383151615610d67573d5f823e3d81fd5b5f883b113d1516831692505b604052505f60605295945050505050565b80356001600160a01b0381168114610d9a575f80fd5b919050565b5f60208284031215610daf575f80fd5b610db882610d84565b9392505050565b5f60208284031215610dcf575f80fd5b5035919050565b5f805f8060808587031215610de9575f80fd5b610df285610d84565b9350610e0060208601610d84565b9250610e0e60408601610d84565b9150610e1c60608601610d84565b905092959194509250565b5f8060408385031215610e38575f80fd5b82359150610e4860208401610d84565b90509250929050565b634e487b7160e01b5f52601160045260245ffd5b808202811582820484141761080257610802610e51565b5f82610e9657634e487b7160e01b5f52601260045260245ffd5b500490565b8181038181111561080257610802610e51565b8082018082111561080257610802610e51565b5f60208284031215610ed1575f80fd5b505191905056fea2646970667358221220549eb8672fbb46137fe4b221b28eafc2f76675d07b6d5e95a8b3ff76e46d8a6a64736f6c63430008140033","linkReferences":{}},"methodIdentifiers":{"claimInitRewards()":"8cd390c7","coverPayout(uint256,address)":"ed2182cb","deposit(uint256)":"b6b55f25","distributeInitRewards(uint256)":"3af8517f","getLPBalance(address)":"d2258beb","getVaultBalance()":"ed12e8ef","initToken()":"e66738cd","owner()":"8da5cb5b","pendingInitRewards(address)":"15f4499c","positionManager()":"791b98bc","receiveLoserFunds(uint256)":"e323459d","rewardDebt(address)":"5873eb9b","rewardsPerShare()":"c7e1d0b1","setContracts(address,address,address,address)":"bf989b6e","settlementEngine()":"e6d0919d","shares(address)":"ce7c2ac2","sltpManager()":"c606a051","totalDeposited()":"ff50abdc","totalShares()":"3a98ef39","usdc()":"3e413bee","withdraw(uint256)":"2e1a7d4d"},"id":30}