{"abi":[{"type":"constructor","inputs":[{"name":"_usdc","type":"address","internalType":"address"}],"stateMutability":"nonpayable"},{"type":"function","name":"claimInitRewards","inputs":[],"outputs":[],"stateMutability":"nonpayable"},{"type":"function","name":"coverPayout","inputs":[{"name":"amount","type":"uint256","internalType":"uint256"},{"name":"recipient","type":"address","internalType":"address"}],"outputs":[],"stateMutability":"nonpayable"},{"type":"function","name":"deposit","inputs":[{"name":"amount","type":"uint256","internalType":"uint256"}],"outputs":[],"stateMutability":"nonpayable"},{"type":"function","name":"distributeInitRewards","inputs":[{"name":"amount","type":"uint256","internalType":"uint256"}],"outputs":[],"stateMutability":"nonpayable"},{"type":"function","name":"getLPBalance","inputs":[{"name":"lp","type":"address","internalType":"address"}],"outputs":[{"name":"","type":"uint256","internalType":"uint256"}],"stateMutability":"view"},{"type":"function","name":"getVaultBalance","inputs":[],"outputs":[{"name":"","type":"uint256","internalType":"uint256"}],"stateMutability":"view"},{"type":"function","name":"initToken","inputs":[],"outputs":[{"name":"","type":"address","internalType":"contract IERC20"}],"stateMutability":"view"},{"type":"function","name":"owner","inputs":[],"outputs":[{"name":"","type":"address","internalType":"address"}],"stateMutability":"view"},{"type":"function","name":"pendingInitRewards","inputs":[{"name":"","type":"address","internalType":"address"}],"outputs":[{"name":"","type":"uint256","internalType":"uint256"}],"stateMutability":"view"},{"type":"function","name":"positionManager","inputs":[],"outputs":[{"name":"","type":"address","internalType":"address"}],"stateMutability":"view"},{"type":"function","name":"receiveLoserFunds","inputs":[{"name":"amount","type":"uint256","internalType":"uint256"}],"outputs":[],"stateMutability":"nonpayable"},{"type":"function","name":"rewardDebt","inputs":[{"name":"","type":"address","internalType":"address"}],"outputs":[{"name":"","type":"uint256","internalType":"uint256"}],"stateMutability":"view"},{"type":"function","name":"rewardsPerShare","inputs":[],"outputs":[{"name":"","type":"uint256","internalType":"uint256"}],"stateMutability":"view"},{"type":"function","name":"setContracts","inputs":[{"name":"_settlement","type":"address","internalType":"address"},{"name":"_sltp","type":"address","internalType":"address"},{"name":"_pm","type":"address","internalType":"address"},{"name":"_initToken","type":"address","internalType":"address"}],"outputs":[],"stateMutability":"nonpayable"},{"type":"function","name":"settlementEngine","inputs":[],"outputs":[{"name":"","type":"address","internalType":"address"}],"stateMutability":"view"},{"type":"function","name":"shares","inputs":[{"name":"","type":"address","internalType":"address"}],"outputs":[{"name":"","type":"uint256","internalType":"uint256"}],"stateMutability":"view"},{"type":"function","name":"sltpManager","inputs":[],"outputs":[{"name":"","type":"address","internalType":"address"}],"stateMutability":"view"},{"type":"function","name":"totalDeposited","inputs":[],"outputs":[{"name":"","type":"uint256","internalType":"uint256"}],"stateMutability":"view"},{"type":"function","name":"totalShares","inputs":[],"outputs":[{"name":"","type":"uint256","internalType":"uint256"}],"stateMutability":"view"},{"type":"function","name":"usdc","inputs":[],"outputs":[{"name":"","type":"address","internalType":"contract IERC20"}],"stateMutability":"view"},{"type":"function","name":"withdraw","inputs":[{"name":"shareAmount","type":"uint256","internalType":"uint256"}],"outputs":[],"stateMutability":"nonpayable"},{"type":"event","name":"Deposited","inputs":[{"name":"lp","type":"address","indexed":true,"internalType":"address"},{"name":"amount","type":"uint256","indexed":false,"internalType":"uint256"},{"name":"shares","type":"uint256","indexed":false,"internalType":"uint256"}],"anonymous":false},{"type":"event","name":"InitRewardClaimed","inputs":[{"name":"lp","type":"address","indexed":true,"internalType":"address"},{"name":"amount","type":"uint256","indexed":false,"internalType":"uint256"}],"anonymous":false},{"type":"event","name":"PayoutCovered","inputs":[{"name":"recipient","type":"address","indexed":true,"internalType":"address"},{"name":"amount","type":"uint256","indexed":false,"internalType":"uint256"}],"anonymous":false},{"type":"event","name":"Withdrawn","inputs":[{"name":"lp","type":"address","indexed":true,"internalType":"address"},{"name":"amount","type":"uint256","indexed":false,"internalType":"uint256"},{"name":"shares","type":"uint256","indexed":false,"internalType":"uint256"}],"anonymous":false},{"type":"error","name":"SafeERC20FailedOperation","inputs":[{"name":"token","type":"address","internalType":"address"}]}],"bytecode":{"object":"0x60803461007857601f610e1638819003918201601f19168301916001600160401b0383118484101761007c5780849260209460405283398101031261007857516001600160a01b038116908190036100785760018060a01b031933815f5416175f556001541617600155604051610d8590816100918239f35b5f80fd5b634e487b7160e01b5f52604160045260245ffdfe6080604090808252600480361015610015575f80fd5b5f3560e01c91826315f4499c14610995575081632e1a7d4d146108535781633a98ef39146108355781633af8517f146107325781633e413bee1461070a5781635873eb9b146106d3578163791b98bc146106ac5781638cd390c7146106885781638da5cb5b14610661578163b6b55f251461051e578163bf989b6e1461048a578163c606a05114610462578163c7e1d0b114610444578163ce7c2ac21461040d578163d2258beb146103e1578163e323459d14610378578163e66738cd14610350578163e6d0919d14610328578163ed12e8ef14610295578163ed2182cb14610128575063ff50abdc14610107575f80fd5b34610124575f366003190112610124576020906007549051908152f35b5f80fd5b9050346101245781600319360112610124578035906101456109df565b6002546001600160a01b039190821633148015610288575b801561027c575b61016d90610ace565b81600154168551936370a0823160e01b855230818601526020948581602481865afa80156102725787915f91610241575b50106101fe5750946101e285837ffda175468a49b8c97b237d14e3f6ed0c23a92e213f1f9392001af74540958c42979860075483808210156101eb575b5050610c67565b519485521692a2005b6101f491610a3a565b6007555f836101db565b865162461bcd60e51b8152908101859052601d60248201527f5661756c743a20696e73756666696369656e74206c69717569646974790000006044820152606490fd5b809250878092503d831161026b575b61025a8183610b12565b81010312610124578690515f61019e565b503d610250565b88513d5f823e3d90fd5b50825482163314610164565b508160035416331461015d565b8234610124575f3660031901126101245760015481516370a0823160e01b81523093810193909352602090839060249082906001600160a01b03165afa90811561031f575f916102ea575b6020925051908152f35b90506020823d602011610317575b8161030560209383610b12565b810103126101245760209151906102e0565b3d91506102f8565b513d5f823e3d90fd5b8234610124575f3660031901126101245760025490516001600160a01b039091168152602090f35b8234610124575f3660031901126101245760085490516001600160a01b039091168152602090f35b34610124576020366003190112610124576002546103c091906103b790336001600160a01b03918216149081156103d2575b81156103c5575b50610ace565b35600754610a86565b600755005b90508254163314846103b1565b809150600354163314906103aa565b8234610124576020366003190112610124576020906104066104016109c9565b610a93565b9051908152f35b8234610124576020366003190112610124576020906001600160a01b036104326109c9565b165f5260058252805f20549051908152f35b8234610124575f36600319011261012457602090600a549051908152f35b8234610124575f3660031901126101245760035490516001600160a01b039091168152602090f35b34610124576080366003190112610124576104a36109c9565b6104ab6109df565b916044356001600160a01b03818116918290036101245760643594818616809603610124576104de825f54163314610a47565b816bffffffffffffffffffffffff60a01b951685600254161760025516836003541617600355828254161790558161051257005b60085416176008555f80f35b82346101245760208060031936011261012457823592831561062b5750907f73a19dd210f1a7f902193214c0ee91dd35ee5b4d920cba8d519eca65a7b488ca9161056733610b48565b600154610582908590309033906001600160a01b0316610ce5565b60065480158015610621575b15610605575083905b335f5260058152825f206105ac838254610a86565b90556105ba82600654610a86565b6006556105c985600754610a86565b600755335f5260058152670de0b6b3a76400006105ec845f2054600a54906109f5565b04335f52600b8252835f205582519485528401523392a2005b61061261061b91866109f5565b60075490610a1c565b90610597565b506007541561058e565b915162461bcd60e51b815291820152601260248201527115985d5b1d0e881e995c9bc8185b5bdd5b9d60721b6044820152606490fd5b8234610124575f366003190112610124575f5490516001600160a01b039091168152602090f35b34610124575f366003190112610124576106a133610b48565b6106aa33610be4565b005b8234610124575f36600319011261012457905490516001600160a01b039091168152602090f35b8234610124576020366003190112610124576020906001600160a01b036106f86109c9565b165f52600b8252805f20549051908152f35b8234610124575f3660031901126101245760015490516001600160a01b039091168152602090f35b9050346101245760203660031901126101245780359160018060a01b0361075d815f54163314610a47565b6006541561080257600854169081156107c957508261077f9130903390610ce5565b670de0b6b3a7640000918281029281840414901517156107b6576107b16107a98360065490610a1c565b600a54610a86565b600a55005b601190634e487b7160e01b5f525260245ffd5b5162461bcd60e51b815260208184015260146024820152732b30bab63a1d1037379024a724aa103a37b5b2b760611b6044820152606490fd5b815162461bcd60e51b8152602081850152600d60248201526c5661756c743a206e6f204c507360981b6044820152606490fd5b8234610124575f366003190112610124576020906006549051908152f35b823461012457602091826003193601126101245780359081151580610981575b1561094a5750907f92ccf450a286a957af52509bc1c9939d1a6a481783e142e41e2499f0bb66ebc6916108a533610b48565b6108ae33610be4565b6108c66108bd600754836109f5565b60065490610a1c565b93335f5260058152825f206108dc838254610a3a565b90556108ea82600654610a3a565b6006556108f985600754610a3a565b600755335f5260058152670de0b6b3a764000061091c845f2054600a54906109f5565b04335f52600b8252835f205561093d853360018060a01b0360015416610c67565b82519485528401523392a2005b825162461bcd60e51b815290810184905260116024820152705661756c743a206261642073686172657360781b6044820152606490fd5b50335f5260058452825f2054821115610873565b839034610124576020366003190112610124576020916001600160a01b036109bb6109c9565b165f52600983525f20548152f35b600435906001600160a01b038216820361012457565b602435906001600160a01b038216820361012457565b81810292918115918404141715610a0857565b634e487b7160e01b5f52601160045260245ffd5b8115610a26570490565b634e487b7160e01b5f52601260045260245ffd5b91908203918211610a0857565b15610a4e57565b60405162461bcd60e51b815260206004820152601060248201526f2b30bab63a1d103737ba1037bbb732b960811b6044820152606490fd5b91908201809211610a0857565b6006548015610ac857610ac59160018060a01b03165f526005602052610ac060405f2054600754906109f5565b610a1c565b90565b50505f90565b15610ad557565b60405162461bcd60e51b815260206004820152601560248201527415985d5b1d0e881b9bdd08185d5d1a1bdc9a5e9959605a1b6044820152606490fd5b90601f8019910116810190811067ffffffffffffffff821117610b3457604052565b634e487b7160e01b5f52604160045260245ffd5b6001600160a01b03165f8181526005602052604090205480610b98575b50805f526005602052670de0b6b3a7640000610b8860405f2054600a54906109f5565b04905f52600b60205260405f2055565b670de0b6b3a7640000610bb1610bc592600a54906109f5565b04825f52600b60205260405f205490610a3a565b815f526009602052610bdc60405f20918254610a86565b90555f610b65565b60018060a01b0380821691825f52600960205260405f209182549081151580610c5a575b610c14575b5050505050565b81602093610c49925f7f1120cc8744995f5eb3d90098f72e1836055590f40073c76ccf66541ec542a8d6975560085416610c67565b604051908152a25f80808080610c0d565b5080600854161515610c08565b60405163a9059cbb60e01b5f9081526001600160a01b039384166004526024949094529260209060448180855af160015f5114811615610cc6575b8360405215610cb057505050565b635274afe760e01b835216600482015260249150fd5b6001811516610cdc57813b15153d151616610ca2565b833d5f823e3d90fd5b6040516323b872dd60e01b5f9081526001600160a01b03938416600452938316602452604494909452909160209060648180855af160015f5114811615610d39575b836040525f60605215610cb057505050565b6001811516610cdc57813b15153d151616610d2756fea2646970667358221220b142cae76c24d9919c8fbf8039fc6d54b8d3c0f4928ed6e520a0df5925141d9764736f6c63430008180033","linkReferences":{}},"methodIdentifiers":{"claimInitRewards()":"8cd390c7","coverPayout(uint256,address)":"ed2182cb","deposit(uint256)":"b6b55f25","distributeInitRewards(uint256)":"3af8517f","getLPBalance(address)":"d2258beb","getVaultBalance()":"ed12e8ef","initToken()":"e66738cd","owner()":"8da5cb5b","pendingInitRewards(address)":"15f4499c","positionManager()":"791b98bc","receiveLoserFunds(uint256)":"e323459d","rewardDebt(address)":"5873eb9b","rewardsPerShare()":"c7e1d0b1","setContracts(address,address,address,address)":"bf989b6e","settlementEngine()":"e6d0919d","shares(address)":"ce7c2ac2","sltpManager()":"c606a051","totalDeposited()":"ff50abdc","totalShares()":"3a98ef39","usdc()":"3e413bee","withdraw(uint256)":"2e1a7d4d"},"id":33}