{"abi":[{"type":"constructor","inputs":[],"stateMutability":"nonpayable"},{"type":"function","name":"ORACLE_PRECOMPILE","inputs":[],"outputs":[{"name":"","type":"address","internalType":"address"}],"stateMutability":"view"},{"type":"function","name":"fallbackPrices","inputs":[{"name":"","type":"string","internalType":"string"}],"outputs":[{"name":"","type":"uint256","internalType":"uint256"}],"stateMutability":"view"},{"type":"function","name":"getPrice","inputs":[{"name":"symbol","type":"string","internalType":"string"}],"outputs":[{"name":"","type":"uint256","internalType":"uint256"}],"stateMutability":"view"},{"type":"function","name":"getPriceWithTimestamp","inputs":[{"name":"symbol","type":"string","internalType":"string"}],"outputs":[{"name":"price","type":"uint256","internalType":"uint256"},{"name":"timestamp","type":"uint256","internalType":"uint256"}],"stateMutability":"view"},{"type":"function","name":"maxStaleness","inputs":[],"outputs":[{"name":"","type":"uint256","internalType":"uint256"}],"stateMutability":"view"},{"type":"function","name":"owner","inputs":[],"outputs":[{"name":"","type":"address","internalType":"address"}],"stateMutability":"view"},{"type":"function","name":"setFallbackPrice","inputs":[{"name":"symbol","type":"string","internalType":"string"},{"name":"price","type":"uint256","internalType":"uint256"}],"outputs":[],"stateMutability":"nonpayable"},{"type":"function","name":"setMaxStaleness","inputs":[{"name":"seconds_","type":"uint256","internalType":"uint256"}],"outputs":[],"stateMutability":"nonpayable"}],"bytecode":{"object":"0x6080604052603c600155348015610014575f80fd5b505f80546001600160a01b03191633179055604051691193706357272de000009060029061004b906242544360e81b815260030190565b908152604051908190036020018120919091556208aa8960eb1b8152686194049f30f72000009060029060030190815260405190819003602001812091909155631253925560e21b81526714d1120d7b1600009060029060040190815260405190819003602001902055610640806100c25f395ff3fe608060405234801561000f575f80fd5b5060043610610085575f3560e01c806387cf46961161005857806387cf46961461010f5780638da5cb5b14610118578063a2fc3c561461012a578063c53167001461013d575f80fd5b8063100bc9e114610089578063524f38891461009e57806357619bf1146100c45780637c0cb2e7146100ef575b5f80fd5b61009c6100973660046103f1565b610165565b005b6100b16100ac366004610446565b6101bc565b6040519081526020015b60405180910390f35b6100b16100d2366004610499565b805160208183018101805160028252928201919093012091525481565b6100f7606681565b6040516001600160a01b0390911681526020016100bb565b6100b160015481565b5f546100f7906001600160a01b031681565b61009c610138366004610544565b6102ce565b61015061014b366004610446565b610343565b604080519283526020830191909152016100bb565b5f546001600160a01b031633146101b75760405162461bcd60e51b815260206004820152601160248201527027b930b1b6329d103737ba1037bbb732b960791b60448201526064015b60405180910390fd5b600155565b5f60663b156102525760405163524f388960e01b815260669063524f3889906101eb908690869060040161058c565b6040805180830381865afa925050508015610223575060408051601f3d908101601f19168201909252610220918101906105ba565b60015b15610252575f82118015610242575060015461023f82426105dc565b11155b1561024f575090506102c8565b50505b5f600284846040516102659291906105fb565b90815260200160405180910390205490505f81116102c55760405162461bcd60e51b815260206004820152601960248201527f4f7261636c653a206e6f2066616c6c6261636b2070726963650000000000000060448201526064016101ae565b90505b92915050565b5f546001600160a01b0316331461031b5760405162461bcd60e51b815260206004820152601160248201527027b930b1b6329d103737ba1037bbb732b960791b60448201526064016101ae565b806002848460405161032e9291906105fb565b90815260405190819003602001902055505050565b5f8060663b156103c35760405163524f388960e01b815260669063524f388990610373908790879060040161058c565b6040805180830381865afa9250505080156103ab575060408051601f3d908101601f191682019092526103a8918101906105ba565b60015b156103c35781156103c05790925090506103ea565b50505b600284846040516103d59291906105fb565b90815260200160405180910390205442915091505b9250929050565b5f60208284031215610401575f80fd5b5035919050565b5f8083601f840112610418575f80fd5b50813567ffffffffffffffff81111561042f575f80fd5b6020830191508360208285010111156103ea575f80fd5b5f8060208385031215610457575f80fd5b823567ffffffffffffffff81111561046d575f80fd5b61047985828601610408565b90969095509350505050565b634e487b7160e01b5f52604160045260245ffd5b5f602082840312156104a9575f80fd5b813567ffffffffffffffff808211156104c0575f80fd5b818401915084601f8301126104d3575f80fd5b8135818111156104e5576104e5610485565b604051601f8201601f19908116603f0116810190838211818310171561050d5761050d610485565b81604052828152876020848701011115610525575f80fd5b826020860160208301375f928101602001929092525095945050505050565b5f805f60408486031215610556575f80fd5b833567ffffffffffffffff81111561056c575f80fd5b61057886828701610408565b909790965060209590950135949350505050565b60208152816020820152818360408301375f818301604090810191909152601f909201601f19160101919050565b5f80604083850312156105cb575f80fd5b505080516020909101519092909150565b818103818111156102c857634e487b7160e01b5f52601160045260245ffd5b818382375f910190815291905056fea2646970667358221220d457763cf320aede93a2d3e08ebb1597cc622c69e8b78c7903f30fe9066e11df64736f6c63430008140033","linkReferences":{}},"methodIdentifiers":{"ORACLE_PRECOMPILE()":"7c0cb2e7","fallbackPrices(string)":"57619bf1","getPrice(string)":"524f3889","getPriceWithTimestamp(string)":"c5316700","maxStaleness()":"87cf4696","owner()":"8da5cb5b","setFallbackPrice(string,uint256)":"a2fc3c56","setMaxStaleness(uint256)":"100bc9e1"},"id":32}