{"abi":[{"type":"constructor","inputs":[],"stateMutability":"nonpayable"},{"type":"function","name":"connectOracle","inputs":[],"outputs":[{"name":"","type":"address","internalType":"address"}],"stateMutability":"view"},{"type":"function","name":"fallbackPrices","inputs":[{"name":"","type":"string","internalType":"string"}],"outputs":[{"name":"","type":"uint256","internalType":"uint256"}],"stateMutability":"view"},{"type":"function","name":"getPrice","inputs":[{"name":"symbol","type":"string","internalType":"string"}],"outputs":[{"name":"","type":"uint256","internalType":"uint256"}],"stateMutability":"view"},{"type":"function","name":"getPriceWithTimestamp","inputs":[{"name":"symbol","type":"string","internalType":"string"}],"outputs":[{"name":"price","type":"uint256","internalType":"uint256"},{"name":"timestamp","type":"uint256","internalType":"uint256"}],"stateMutability":"view"},{"type":"function","name":"isNativeActive","inputs":[{"name":"symbol","type":"string","internalType":"string"}],"outputs":[{"name":"","type":"bool","internalType":"bool"}],"stateMutability":"view"},{"type":"function","name":"oracleSource","inputs":[{"name":"symbol","type":"string","internalType":"string"}],"outputs":[{"name":"","type":"string","internalType":"string"}],"stateMutability":"view"},{"type":"function","name":"owner","inputs":[],"outputs":[{"name":"","type":"address","internalType":"address"}],"stateMutability":"view"},{"type":"function","name":"pairIds","inputs":[{"name":"","type":"string","internalType":"string"}],"outputs":[{"name":"","type":"string","internalType":"string"}],"stateMutability":"view"},{"type":"function","name":"setConnectOracle","inputs":[{"name":"_oracle","type":"address","internalType":"address"}],"outputs":[],"stateMutability":"nonpayable"},{"type":"function","name":"setPairId","inputs":[{"name":"symbol","type":"string","internalType":"string"},{"name":"pair","type":"string","internalType":"string"}],"outputs":[],"stateMutability":"nonpayable"},{"type":"function","name":"setPrice","inputs":[{"name":"symbol","type":"string","internalType":"string"},{"name":"price","type":"uint256","internalType":"uint256"}],"outputs":[],"stateMutability":"nonpayable"},{"type":"function","name":"setStaleness","inputs":[{"name":"s","type":"uint256","internalType":"uint256"}],"outputs":[],"stateMutability":"nonpayable"},{"type":"function","name":"staleness","inputs":[],"outputs":[{"name":"","type":"uint256","internalType":"uint256"}],"stateMutability":"view"},{"type":"function","name":"transferOwnership","inputs":[{"name":"newOwner","type":"address","internalType":"address"}],"outputs":[],"stateMutability":"nonpayable"},{"type":"function","name":"updatePrices","inputs":[{"name":"btc","type":"uint256","internalType":"uint256"},{"name":"eth","type":"uint256","internalType":"uint256"},{"name":"init","type":"uint256","internalType":"uint256"}],"outputs":[],"stateMutability":"nonpayable"},{"type":"event","name":"ConnectOracleSet","inputs":[{"name":"oracle","type":"address","indexed":true,"internalType":"address"}],"anonymous":false},{"type":"event","name":"FallbackPriceSet","inputs":[{"name":"symbol","type":"string","indexed":false,"internalType":"string"},{"name":"price","type":"uint256","indexed":false,"internalType":"uint256"}],"anonymous":false},{"type":"event","name":"StalenessUpdated","inputs":[{"name":"newStaleness","type":"uint256","indexed":false,"internalType":"uint256"}],"anonymous":false}],"bytecode":{"object":"0x6080604090808252346101265760249060786002553360018060a01b03195f5416175f5560236242544360e81b91828152691193706357272de0000082600392838082015220556004855191686194049f30f7200000846208aa8960eb1b9485815283808201522055838751956714d1120d7b16000088631253925560e21b988981528587820152205588519081528383820152206100a76100a1825461012a565b82610162565b600e66109510cbd554d160ca1b0190558651928352820152206100cd6100a1825461012a565b600e661155120bd554d160ca1b0190558251908152600480820152206100f66100a1825461012a565b7f494e49542f555344000000000000000000000000000000000000000000000010905551610d3390816101968239f35b5f80fd5b90600182811c92168015610158575b602083101461014457565b634e487b7160e01b5f52602260045260245ffd5b91607f1691610139565b601f821161016e575050565b5f52601f60205f20910160051c8101905b81811061018a575050565b5f815560010161017f56fe60406080815260049081361015610014575f80fd5b5f3560e01c80630898621d146106955780630cc4488714610677578063123509791461064f57806322e01192146105a15780633ed620a41461052e578063524f3889146104ec578063561b9cf01461036757806357619bf11461032d578063644a2f9e146102d45780638da5cb5b146102ad578063938aad3e14610222578063a64efce8146101de578063c531670014610199578063ea0f13e41461014e5763f2fde38b146100c1575f80fd5b3461014a57602036600319011261014a576001600160a01b0382358181169391929084900361014a576100f95f549384163314610914565b83156101105750506001600160a01b031916175f55005b906020606492519162461bcd60e51b835282015260146024820152734f7261636c653a207a65726f206164647265737360601b6044820152fd5b5f80fd5b503461014a5761018a61017c6020610195946101693661077e565b90828651948386809551938492016107ed565b820190815203019020610872565b90519182918261080e565b0390f35b50903461014a57602036600319011261014a5780356001600160401b03811161014a576101d2916101cc91369101610701565b90610a82565b82519182526020820152f35b503461014a57602036600319011261014a578135916001600160401b03831161014a5761021361021991602094369101610701565b90610b8d565b15159051908152f35b503461014a57602036600319011261014a578135916001600160401b03831161014a576102136102589161019594369101610701565b156102875780516102688161072e565b60068152656e617469766560d01b6020820152905b519182918261080e565b80516102928161072e565b600881526766616c6c6261636b60c01b60208201529061027d565b503461014a575f36600319011261014a575f5490516001600160a01b039091168152602090f35b50903461014a57602036600319011261014a577f70ea5820bcfc23261788cd8be4d1abbb3ce78259bd2d58f4475866f0216a850591602091359061032260018060a01b035f54163314610914565b8160025551908152a1005b503461014a57602090610355826103433661077e565b818451938285809451938492016107ed565b81016003815203019020549051908152f35b50903461014a578160031936011261014a576001600160401b0390803582811161014a576103989036908301610701565b9390916024359284841161014a576103b4869436908401610701565b9490936103cb60018060a01b035f54163314610914565b51968792833781018281526020968791030190209383116104d957506103f1835461083a565b601f8111610496575b505f93601f83116001146104365750928192935f9261042b575b50505f19600383901b1c191660019190911b179055005b013590505f80610414565b90601f19831694845f52825f20925f905b87821061047e575050836001959610610465575b505050811b019055005b01355f19600384901b60f8161c191690555f808061045b565b80600184968294958701358155019501920190610447565b835f52845f20601f840160051c8101918685106104cf575b601f0160051c01905b8181106104c457506103fa565b5f81556001016104b7565b90915081906104ae565b604190634e487b7160e01b5f525260245ffd5b503461014a57602036600319011261014a578135916001600160401b03831161014a5761052161052791602094369101610701565b90610954565b9051908152f35b503461014a57606036600319011261014a5760039061055760018060a01b035f54163314610914565b80516242544360e81b815282808201526023843591205580516208aa8960eb1b8152828082015260236024359120555191631253925560e21b835282015260246044359120555f80f35b503461014a578060031936011261014a578135916001600160401b03831161014a576105f36060917f2f587d4ef18cca902d0fc88fbe45570ce4f6bc138ce235965112cb426d799f2594369101610701565b809391816024359161060f60018060a01b035f54163314610914565b828551838382376020818581016003815203019020558451968588968752860152858501375f8383018501526020830152601f01601f19168101030190a1005b503461014a575f36600319011261014a5760015490516001600160a01b039091168152602090f35b503461014a575f36600319011261014a576020906002549051908152f35b823461014a57602036600319011261014a57356001600160a01b038181169182900361014a576106c9905f54163314610914565b600180546001600160a01b031916821790557f5684ab015fe6582f029c3d87c8bf63195f603b0dfbc2b971bd8a6022cef91f2d5f80a2005b9181601f8401121561014a578235916001600160401b03831161014a576020838186019501011161014a57565b604081019081106001600160401b0382111761074957604052565b634e487b7160e01b5f52604160045260245ffd5b90601f801991011681019081106001600160401b0382111761074957604052565b602060031982011261014a576001600160401b0360043581811161014a578260238201121561014a57806004013591821161074957604051926107cb601f8401601f19166020018561075d565b8284526024838301011161014a57815f92602460209301838601378301015290565b5f5b8381106107fe5750505f910152565b81810151838201526020016107ef565b6040916020825261082e81518092816020860152602086860191016107ed565b601f01601f1916010190565b90600182811c92168015610868575b602083101461085457565b634e487b7160e01b5f52602260045260245ffd5b91607f1691610849565b9060405191825f82546108848161083a565b908184526020946001916001811690815f146108f257506001146108b4575b5050506108b29250038361075d565b565b5f90815285812095935091905b8183106108da5750506108b293508201015f80806108a3565b855488840185015294850194879450918301916108c1565b925050506108b294925060ff191682840152151560051b8201015f80806108a3565b1561091b57565b60405162461bcd60e51b815260206004820152601160248201527027b930b1b6329d103737ba1037bbb732b960791b6044820152606490fd5b61095e8282610b8d565b806109c95750602090826040519384928337810160038152030190205480156109845790565b60405162461bcd60e51b815260206004820152601960248201527f4f7261636c653a206e6f2066616c6c6261636b207072696365000000000000006044820152606490fd5b91505090565b51906001600160401b038216820361014a57565b908160c091031261014a576040519060c082018281106001600160401b0382111761074957610a599160a0916040528051845260208101516020850152610a2c604082016109cf565b6040850152610a3d606082016109cf565b6060850152610a4e608082016109cf565b6080850152016109cf565b60a082015290565b91908203918211610a6e57565b634e487b7160e01b5f52601160045260245ffd5b6001546001600160a01b031680610ab1575b506020908260405193849283378101600381520301902054904290565b610ace604051848482376020818681016004815203019020610872565b908151610adc575b50610a94565b610afe9160c0916040518080958194636330ac0960e01b83526004830161080e565b03915afa5f9181610b5c575b50610b16575b80610ad6565b805180610b24575b50610b10565b610b3e6020916001600160401b0360808501511690610c82565b9101610b4b815142610a61565b60025410610b1e5791509291505190565b610b7f91925060c03d60c011610b86575b610b77818361075d565b8101906109e3565b905f610b0a565b503d610b6d565b6001546001600160a01b0316918215610c64576020610bbe9282604051938492833781016004815203019020610872565b90815115610c5e57610be89160c0916040518080958194636330ac0960e01b83526004830161080e565b03915afa5f9181610c3d575b50610bfe57505f90565b805115610c3857610c13602082015142610a61565b60025410610c3857806001600160401b036080610c3593519201511690610c82565b90565b505f90565b610c5791925060c03d60c011610b8657610b77818361075d565b905f610bf4565b50505f90565b5050505f90565b6001600160401b0316604d8111610a6e57600a0a90565b906001600160401b0380911660128114610cf85760128110610cd15760111901908111610a6e57610cb290610c6b565b908115610cbd570490565b634e487b7160e01b5f52601260045260245ffd5b601203908111610a6e57610ce490610c6b565b90818102918183041490151715610a6e5790565b50509056fea2646970667358221220d845ac3c8876e6450f65855a401dc68493be2a69d2436f42c44a007006e037d264736f6c63430008180033","linkReferences":{}},"methodIdentifiers":{"connectOracle()":"12350979","fallbackPrices(string)":"57619bf1","getPrice(string)":"524f3889","getPriceWithTimestamp(string)":"c5316700","isNativeActive(string)":"a64efce8","oracleSource(string)":"938aad3e","owner()":"8da5cb5b","pairIds(string)":"ea0f13e4","setConnectOracle(address)":"0898621d","setPairId(string,string)":"561b9cf0","setPrice(string,uint256)":"22e01192","setStaleness(uint256)":"644a2f9e","staleness()":"0cc44887","transferOwnership(address)":"f2fde38b","updatePrices(uint256,uint256,uint256)":"3ed620a4"},"id":30}