{"abi":[{"type":"constructor","inputs":[],"stateMutability":"nonpayable"},{"type":"function","name":"fallbackPrices","inputs":[{"name":"","type":"string","internalType":"string"}],"outputs":[{"name":"","type":"uint256","internalType":"uint256"}],"stateMutability":"view"},{"type":"function","name":"getPrice","inputs":[{"name":"symbol","type":"string","internalType":"string"}],"outputs":[{"name":"","type":"uint256","internalType":"uint256"}],"stateMutability":"view"},{"type":"function","name":"getPriceWithTimestamp","inputs":[{"name":"symbol","type":"string","internalType":"string"}],"outputs":[{"name":"price","type":"uint256","internalType":"uint256"},{"name":"timestamp","type":"uint256","internalType":"uint256"}],"stateMutability":"view"},{"type":"function","name":"owner","inputs":[],"outputs":[{"name":"","type":"address","internalType":"address"}],"stateMutability":"view"},{"type":"function","name":"setPrice","inputs":[{"name":"symbol","type":"string","internalType":"string"},{"name":"price","type":"uint256","internalType":"uint256"}],"outputs":[],"stateMutability":"nonpayable"},{"type":"function","name":"updatePrices","inputs":[{"name":"btc","type":"uint256","internalType":"uint256"},{"name":"eth","type":"uint256","internalType":"uint256"},{"name":"init","type":"uint256","internalType":"uint256"}],"outputs":[],"stateMutability":"nonpayable"}],"bytecode":{"object":"0x608060405234801561000f575f80fd5b505f80546001600160a01b03191633179055604051690e9c7f5bd6550120000090600190610046906242544360e81b815260030190565b908152604051908190036020018120919091556208aa8960eb1b81526871d75ab9b9205000009060019060030190815260405190819003602001812091909155631253925560e21b81526701235290c795000090600190600401908152604051908190036020019020556104ed806100bd5f395ff3fe608060405234801561000f575f80fd5b5060043610610060575f3560e01c806322e01192146100645780633ed620a414610079578063524f38891461008c57806357619bf1146100b25780638da5cb5b146100dd578063c531670014610107575b5f80fd5b610077610072366004610339565b61012f565b005b610077610087366004610381565b6101a9565b61009f61009a3660046103aa565b61025d565b6040519081526020015b60405180910390f35b61009f6100c03660046103fd565b805160208183018101805160018252928201919093012091525481565b5f546100ef906001600160a01b031681565b6040516001600160a01b0390911681526020016100a9565b61011a6101153660046103aa565b6102cb565b604080519283526020830191909152016100a9565b5f546001600160a01b031633146101815760405162461bcd60e51b815260206004820152601160248201527027b930b1b6329d103737ba1037bbb732b960791b60448201526064015b60405180910390fd5b80600184846040516101949291906104a8565b90815260405190819003602001902055505050565b5f546001600160a01b031633146101f65760405162461bcd60e51b815260206004820152601160248201527027b930b1b6329d103737ba1037bbb732b960791b6044820152606401610178565b82600160405161020f906242544360e81b815260030190565b908152604051908190036020018120919091556208aa8960eb1b8152829060019060030190815260405190819003602001812091909155631253925560e21b81528190600190600401610194565b5f80600184846040516102719291906104a8565b90815260200160405180910390205490505f81116102c45760405162461bcd60e51b815260206004820152601060248201526f4f7261636c653a206e6f20707269636560801b6044820152606401610178565b9392505050565b5f80600184846040516102df9291906104a8565b90815260200160405180910390205442915091505b9250929050565b5f8083601f84011261030b575f80fd5b50813567ffffffffffffffff811115610322575f80fd5b6020830191508360208285010111156102f4575f80fd5b5f805f6040848603121561034b575f80fd5b833567ffffffffffffffff811115610361575f80fd5b61036d868287016102fb565b909790965060209590950135949350505050565b5f805f60608486031215610393575f80fd5b505081359360208301359350604090920135919050565b5f80602083850312156103bb575f80fd5b823567ffffffffffffffff8111156103d1575f80fd5b6103dd858286016102fb565b90969095509350505050565b634e487b7160e01b5f52604160045260245ffd5b5f6020828403121561040d575f80fd5b813567ffffffffffffffff80821115610424575f80fd5b818401915084601f830112610437575f80fd5b813581811115610449576104496103e9565b604051601f8201601f19908116603f01168101908382118183101715610471576104716103e9565b81604052828152876020848701011115610489575f80fd5b826020860160208301375f928101602001929092525095945050505050565b818382375f910190815291905056fea2646970667358221220e8400d5b01c3f085c618abee5abe625c3dfb70ae902e8c4b0347b50b88317b2d64736f6c63430008140033","linkReferences":{}},"methodIdentifiers":{"fallbackPrices(string)":"57619bf1","getPrice(string)":"524f3889","getPriceWithTimestamp(string)":"c5316700","owner()":"8da5cb5b","setPrice(string,uint256)":"22e01192","updatePrices(uint256,uint256,uint256)":"3ed620a4"},"id":27}