{"abi":[{"type":"constructor","inputs":[{"name":"_factory","type":"address","internalType":"address"},{"name":"_positionManager","type":"address","internalType":"address"},{"name":"_vault","type":"address","internalType":"address"},{"name":"_oracle","type":"address","internalType":"address"}],"stateMutability":"nonpayable"},{"type":"function","name":"bootstrapMarkets","inputs":[],"outputs":[],"stateMutability":"nonpayable"},{"type":"function","name":"factory","inputs":[],"outputs":[{"name":"","type":"address","internalType":"address"}],"stateMutability":"view"},{"type":"function","name":"keeper","inputs":[],"outputs":[{"name":"","type":"address","internalType":"address"}],"stateMutability":"view"},{"type":"function","name":"marketPositions","inputs":[{"name":"","type":"uint256","internalType":"uint256"},{"name":"","type":"uint256","internalType":"uint256"}],"outputs":[{"name":"","type":"uint256","internalType":"uint256"}],"stateMutability":"view"},{"type":"function","name":"oracle","inputs":[],"outputs":[{"name":"","type":"address","internalType":"address"}],"stateMutability":"view"},{"type":"function","name":"owner","inputs":[],"outputs":[{"name":"","type":"address","internalType":"address"}],"stateMutability":"view"},{"type":"function","name":"positionManager","inputs":[],"outputs":[{"name":"","type":"address","internalType":"address"}],"stateMutability":"view"},{"type":"function","name":"registerPosition","inputs":[{"name":"marketId","type":"uint256","internalType":"uint256"},{"name":"positionId","type":"uint256","internalType":"uint256"}],"outputs":[],"stateMutability":"nonpayable"},{"type":"function","name":"setKeeper","inputs":[{"name":"k","type":"address","internalType":"address"}],"outputs":[],"stateMutability":"nonpayable"},{"type":"function","name":"settle","inputs":[{"name":"marketId","type":"uint256","internalType":"uint256"}],"outputs":[],"stateMutability":"nonpayable"},{"type":"function","name":"settleExpiredMarkets","inputs":[],"outputs":[],"stateMutability":"nonpayable"},{"type":"function","name":"vault","inputs":[],"outputs":[{"name":"","type":"address","internalType":"address"}],"stateMutability":"view"},{"type":"event","name":"MarketSettled","inputs":[{"name":"marketId","type":"uint256","indexed":true,"internalType":"uint256"},{"name":"symbol","type":"string","indexed":false,"internalType":"string"},{"name":"higherWon","type":"bool","indexed":false,"internalType":"bool"},{"name":"settlementPrice","type":"uint256","indexed":false,"internalType":"uint256"},{"name":"totalPayout","type":"uint256","indexed":false,"internalType":"uint256"},{"name":"winnerCount","type":"uint256","indexed":false,"internalType":"uint256"}],"anonymous":false},{"type":"event","name":"NextMarketOpened","inputs":[{"name":"newMarketId","type":"uint256","indexed":true,"internalType":"uint256"},{"name":"symbol","type":"string","indexed":false,"internalType":"string"}],"anonymous":false}],"bytecode":{"object":"0x608060405234801562000010575f80fd5b506040516200128b3803806200128b8339810160408190526200003391620000b8565b5f8054336001600160a01b031991821681179092556001805482166001600160a01b039788161790556002805482169587169590951790945560038054851693861693909317909255600480548416919094161790925560058054909116909117905562000112565b80516001600160a01b0381168114620000b3575f80fd5b919050565b5f805f8060808587031215620000cc575f80fd5b620000d7856200009c565b9350620000e7602086016200009c565b9250620000f7604086016200009c565b915062000107606086016200009c565b905092959194509250565b61116b80620001205f395ff3fe608060405234801561000f575f80fd5b50600436106100b1575f3560e01c80638da5cb5b1161006e5780638da5cb5b1461013e5780638df8280014610150578063aced166114610163578063af503ec914610176578063c45a015514610189578063fbfa77cf1461019c575f80fd5b806346403cc6146100b557806355a1a8dc146100bf57806364488932146100e5578063748747e6146100ed578063791b98bc146101005780637dc0d1d01461012b575b5f80fd5b6100bd6101af565b005b6100d26100cd366004610c95565b610440565b6040519081526020015b60405180910390f35b6100bd61046b565b6100bd6100fb366004610ccc565b6105f7565b600254610113906001600160a01b031681565b6040516001600160a01b0390911681526020016100dc565b600454610113906001600160a01b031681565b5f54610113906001600160a01b031681565b6100bd61015e366004610cee565b610662565b600554610113906001600160a01b031681565b6100bd610184366004610c95565b610c2c565b600154610113906001600160a01b031681565b600354610113906001600160a01b031681565b6005546001600160a01b03163314806101d157505f546001600160a01b031633145b6102135760405162461bcd60e51b815260206004820152600e60248201526d29a29d103737ba1035b2b2b832b960911b60448201526064015b60405180910390fd5b6001546040805160a0810182526003606082018181526242544360e81b60808401528252825180840184529081526208aa8960eb1b602082810191909152808301919091528251808401845260048152631253925560e21b91810191909152918101919091526001600160a01b03909116905f5b600381101561043b575f5b6003811015610428575f846001600160a01b031663ef9c348c8585600381106102bd576102bd610d05565b60200201518460028111156102d4576102d4610d19565b6040518363ffffffff1660e01b81526004016102f1929190610d7a565b602060405180830381865afa15801561030c573d5f803e3d5ffd5b505050506040513d601f19601f820116820180604052508101906103309190610db7565b9050805f0361033f5750610416565b60405163eb44fdd360e01b8152600481018290525f906001600160a01b0387169063eb44fdd3906024015f60405180830381865afa158015610383573d5f803e3d5ffd5b505050506040513d5f823e601f3d908101601f191682016040526103aa9190810190610ed7565b90508060c001511580156103c2575080608001514210155b15610413576040516211bf0560eb1b8152600481018390523090638df82800906024015f604051808303815f87803b1580156103fc575f80fd5b505af115801561040e573d5f803e3d5ffd5b505050505b50505b8061042081610fc7565b915050610292565b508061043381610fc7565b915050610287565b505050565b6006602052815f5260405f208181548110610459575f80fd5b905f5260205f20015f91509150505481565b5f546001600160a01b031633146104b45760405162461bcd60e51b815260206004820152600d60248201526c29a29d103737ba1037bbb732b960991b604482015260640161020a565b6001546040805160a0810182526003606082018181526242544360e81b60808401528252825180840184529081526208aa8960eb1b602082810191909152808301919091528251808401845260048152631253925560e21b91810191909152918101919091526001600160a01b03909116905f5b600381101561043b575f5b60038110156105e457836001600160a01b0316639e4f9a4684846003811061055d5761055d610d05565b602002015183600281111561057457610574610d19565b6040518363ffffffff1660e01b8152600401610591929190610d7a565b6020604051808303815f875af11580156105ad573d5f803e3d5ffd5b505050506040513d601f19601f820116820180604052508101906105d19190610db7565b50806105dc81610fc7565b915050610533565b50806105ef81610fc7565b915050610528565b5f546001600160a01b031633146106405760405162461bcd60e51b815260206004820152600d60248201526c29a29d103737ba1037bbb732b960991b604482015260640161020a565b600580546001600160a01b0319166001600160a01b0392909216919091179055565b6005546001600160a01b031633148061068457505f546001600160a01b031633145b6106c15760405162461bcd60e51b815260206004820152600e60248201526d29a29d103737ba1035b2b2b832b960911b604482015260640161020a565b60015460405163eb44fdd360e01b8152600481018390526001600160a01b03909116905f90829063eb44fdd3906024015f60405180830381865afa15801561070b573d5f803e3d5ffd5b505050506040513d5f823e601f3d908101601f191682016040526107329190810190610ed7565b90508060c001511561077c5760405162461bcd60e51b815260206004820152601360248201527214d14e88185b1c9958591e481cd95d1d1b1959606a1b604482015260640161020a565b80608001514210156107c25760405162461bcd60e51b815260206004820152600f60248201526e14d14e881b9bdd08195e1c1a5c9959608a1b604482015260640161020a565b60048054602083015160405163524f388960e01b81525f936001600160a01b039093169263524f3889926107f892909101610fdf565b602060405180830381865afa158015610813573d5f803e3d5ffd5b505050506040513d601f19601f820116820180604052508101906108379190610db7565b60a083015160405163506034e160e01b81526004810187905290821160248201819052604482018390529192506001600160a01b0385169063506034e1906064015f604051808303815f87803b15801561088f575f80fd5b505af11580156108a1573d5f803e3d5ffd5b505050505f816108b6578361012001516108bd565b8361010001515b90505f826108d0578461010001516108d7565b8461012001515b6002545f8981526006602052604081209293509182916001600160a01b031690825b8154811015610ac4575f836001600160a01b031663eb02c30184848154811061092457610924610d05565b905f5260205f2001546040518263ffffffff1660e01b815260040161094b91815260200190565b61018060405180830381865afa158015610967573d5f803e3d5ffd5b505050506040513d601f19601f8201168201806040525081019061098b9190610ffc565b90508060e001511561099d5750610ab2565b60608101511515891515145f8180156109b557505f8a115b15610a0657898d61012001518e61010001516109d191906110b0565b84608001516109e091906110c9565b6109ea91906110e0565b90506109f681896110b0565b975086610a0281610fc7565b9750505b856001600160a01b0316631656b2aa868681548110610a2757610a27610d05565b5f918252602090912001546040516001600160e01b031960e084901b168152600481019190915284151560248201526044810184905260806064820152600a6084820152691cd95d1d1b195b595b9d60b21b60a482015260c4015f604051808303815f87803b158015610a98575f80fd5b505af1158015610aaa573d5f803e3d5ffd5b505050505050505b80610abc81610fc7565b9150506108f9565b508415610b255760035460405163e323459d60e01b8152600481018790526001600160a01b039091169063e323459d906024015f604051808303815f87803b158015610b0e575f80fd5b505af1158015610b20573d5f803e3d5ffd5b505050505b8a7f2ae75c3e3831a94490198dc767ffeb3b59d2c0e0333785e9a98697ab37a0c8aa8a60200151898b8888604051610b619594939291906110ff565b60405180910390a25f8a6001600160a01b0316639e4f9a468b602001518c604001516040518363ffffffff1660e01b8152600401610ba0929190610d7a565b6020604051808303815f875af1158015610bbc573d5f803e3d5ffd5b505050506040513d601f19601f82011682018060405250810190610be09190610db7565b9050807f243d8c27f56efd56be97c47199729d30029fce1a6366ce5be1027c831acb4a0f8b60200151604051610c169190610fdf565b60405180910390a2505050505050505050505050565b6002546001600160a01b03163314610c735760405162461bcd60e51b815260206004820152600a60248201526953453a206e6f7420504d60b01b604482015260640161020a565b5f91825260066020908152604083208054600181018255908452922090910155565b5f8060408385031215610ca6575f80fd5b50508035926020909101359150565b6001600160a01b0381168114610cc9575f80fd5b50565b5f60208284031215610cdc575f80fd5b8135610ce781610cb5565b9392505050565b5f60208284031215610cfe575f80fd5b5035919050565b634e487b7160e01b5f52603260045260245ffd5b634e487b7160e01b5f52602160045260245ffd5b5f5b83811015610d47578181015183820152602001610d2f565b50505f910152565b5f8151808452610d66816020860160208601610d2d565b601f01601f19169290920160200192915050565b604081525f610d8c6040830185610d4f565b905060038310610daa57634e487b7160e01b5f52602160045260245ffd5b8260208301529392505050565b5f60208284031215610dc7575f80fd5b5051919050565b634e487b7160e01b5f52604160045260245ffd5b604051610140810167ffffffffffffffff81118282101715610e0657610e06610dce565b60405290565b604051610180810167ffffffffffffffff81118282101715610e0657610e06610dce565b5f82601f830112610e3f575f80fd5b815167ffffffffffffffff80821115610e5a57610e5a610dce565b604051601f8301601f19908116603f01168101908282118183101715610e8257610e82610dce565b81604052838152866020858801011115610e9a575f80fd5b610eab846020830160208901610d2d565b9695505050505050565b805160038110610ec3575f80fd5b919050565b80518015158114610ec3575f80fd5b5f60208284031215610ee7575f80fd5b815167ffffffffffffffff80821115610efe575f80fd5b908301906101408286031215610f12575f80fd5b610f1a610de2565b82518152602083015182811115610f2f575f80fd5b610f3b87828601610e30565b602083015250610f4d60408401610eb5565b6040820152606083015160608201526080830151608082015260a083015160a0820152610f7c60c08401610ec8565b60c0820152610f8d60e08401610ec8565b60e082015261010083810151908201526101209283015192810192909252509392505050565b634e487b7160e01b5f52601160045260245ffd5b5f60018201610fd857610fd8610fb3565b5060010190565b602081525f610ce76020830184610d4f565b8051610ec381610cb5565b5f610180828403121561100d575f80fd5b611015610e0c565b8251815261102560208401610ff1565b60208201526040830151604082015261104060608401610ec8565b60608201526080830151608082015260a083015160a082015260c083015160c082015261106f60e08401610ec8565b60e0820152610100611082818501610ec8565b9082015261012083810151908201526101408084015190820152610160928301519281019290925250919050565b808201808211156110c3576110c3610fb3565b92915050565b80820281158282048414176110c3576110c3610fb3565b5f826110fa57634e487b7160e01b5f52601260045260245ffd5b500490565b60a081525f61111160a0830188610d4f565b9515156020830152506040810193909352606083019190915260809091015291905056fea26469706673582212200fca4cf51750016ef41878a0a4c6390b1c531f02ba13bbd01ad6e93f3fec92be64736f6c63430008140033","linkReferences":{}},"methodIdentifiers":{"bootstrapMarkets()":"64488932","factory()":"c45a0155","keeper()":"aced1661","marketPositions(uint256,uint256)":"55a1a8dc","oracle()":"7dc0d1d0","owner()":"8da5cb5b","positionManager()":"791b98bc","registerPosition(uint256,uint256)":"af503ec9","setKeeper(address)":"748747e6","settle(uint256)":"8df82800","settleExpiredMarkets()":"46403cc6","vault()":"fbfa77cf"},"id":30}