{"abi":[{"type":"constructor","inputs":[{"name":"_factory","type":"address","internalType":"address"},{"name":"_positionManager","type":"address","internalType":"address"},{"name":"_vault","type":"address","internalType":"address"},{"name":"_oracle","type":"address","internalType":"address"}],"stateMutability":"nonpayable"},{"type":"function","name":"bootstrapMarkets","inputs":[],"outputs":[],"stateMutability":"nonpayable"},{"type":"function","name":"factory","inputs":[],"outputs":[{"name":"","type":"address","internalType":"address"}],"stateMutability":"view"},{"type":"function","name":"keeper","inputs":[],"outputs":[{"name":"","type":"address","internalType":"address"}],"stateMutability":"view"},{"type":"function","name":"marketPositions","inputs":[{"name":"","type":"uint256","internalType":"uint256"},{"name":"","type":"uint256","internalType":"uint256"}],"outputs":[{"name":"","type":"uint256","internalType":"uint256"}],"stateMutability":"view"},{"type":"function","name":"oracle","inputs":[],"outputs":[{"name":"","type":"address","internalType":"address"}],"stateMutability":"view"},{"type":"function","name":"owner","inputs":[],"outputs":[{"name":"","type":"address","internalType":"address"}],"stateMutability":"view"},{"type":"function","name":"positionManager","inputs":[],"outputs":[{"name":"","type":"address","internalType":"address"}],"stateMutability":"view"},{"type":"function","name":"registerPosition","inputs":[{"name":"marketId","type":"uint256","internalType":"uint256"},{"name":"positionId","type":"uint256","internalType":"uint256"}],"outputs":[],"stateMutability":"nonpayable"},{"type":"function","name":"setKeeper","inputs":[{"name":"k","type":"address","internalType":"address"}],"outputs":[],"stateMutability":"nonpayable"},{"type":"function","name":"settle","inputs":[{"name":"marketId","type":"uint256","internalType":"uint256"}],"outputs":[],"stateMutability":"nonpayable"},{"type":"function","name":"settleExpiredMarkets","inputs":[],"outputs":[],"stateMutability":"nonpayable"},{"type":"function","name":"vault","inputs":[],"outputs":[{"name":"","type":"address","internalType":"address"}],"stateMutability":"view"},{"type":"event","name":"MarketSettled","inputs":[{"name":"marketId","type":"uint256","indexed":true,"internalType":"uint256"},{"name":"symbol","type":"string","indexed":false,"internalType":"string"},{"name":"higherWon","type":"bool","indexed":false,"internalType":"bool"},{"name":"settlementPrice","type":"uint256","indexed":false,"internalType":"uint256"},{"name":"totalPayout","type":"uint256","indexed":false,"internalType":"uint256"},{"name":"winnerCount","type":"uint256","indexed":false,"internalType":"uint256"}],"anonymous":false},{"type":"event","name":"NextMarketOpened","inputs":[{"name":"newMarketId","type":"uint256","indexed":true,"internalType":"uint256"},{"name":"symbol","type":"string","indexed":false,"internalType":"string"}],"anonymous":false}],"bytecode":{"object":"0x6080346100cb57601f6111eb38819003918201601f19168301916001600160401b038311848410176100cf578084926080946040528339810103126100cb57610047816100e3565b610053602083016100e3565b9061006c6060610065604086016100e3565b94016100e3565b9060018060a01b03199333855f5416175f5560018060a01b03809481809416876001541617600155168560025416176002551683600354161760035516816004541617600455339060055416176005556040516110f390816100f88239f35b5f80fd5b634e487b7160e01b5f52604160045260245ffd5b51906001600160a01b03821682036100cb5756fe604060a08152600480361015610013575f80fd5b5f3560e01c90816346403cc61461043357816355a1a8dc146103f557816364488932146102dc578163748747e61461028d578163791b98bc146102655781637dc0d1d01461023e5781638da5cb5b146102175781638df82800146101ca578163aced1661146101a2578163af503ec9146100f457508063c45a0155146100cc5763fbfa77cf146100a1575f80fd5b346100c8575f3660031901126100c85760035490516001600160a01b039091168152602090f35b5f80fd5b50346100c8575f3660031901126100c85760015490516001600160a01b039091168152602090f35b82346100c857610103366105ee565b600254909291906001600160a01b03163303610172575f5260066020525f208054906801000000000000000082101561015f579061014691600182018155610604565b819291549060031b91821b915f19901b19161790555f80f35b604184634e487b7160e01b5f525260245ffd5b815162461bcd60e51b8152602081860152600a60248201526953453a206e6f7420504d60b01b6044820152606490fd5b82346100c8575f3660031901126100c85760055490516001600160a01b039091168152602090f35b346100c85760203660031901126100c857600554610208919061020290336001600160a01b039182161490811561020a575b5061062d565b3561094f565b005b90505f54163314846101fc565b82346100c8575f3660031901126100c8575f5490516001600160a01b039091168152602090f35b82346100c8575f3660031901126100c857905490516001600160a01b039091168152602090f35b82346100c8575f3660031901126100c85760025490516001600160a01b039091168152602090f35b346100c85760203660031901126100c857356001600160a01b03818116918290036100c8576102c0905f541633146108f2565b6bffffffffffffffffffffffff60a01b60055416176005555f80f35b82346100c8575f3660031901126100c8575f546001600160a01b039061030590821633146108f2565b6001928391600154169280519361031b8561066a565b6103236106ec565b855261032d61070b565b92602093602087015261033e61072a565b838701525f945b61034b57005b600394858110156102085787955f5b81811061036b575050850194610345565b9097919650610399868261037f8a8661074a565b518851634f27cd2360e11b815293849283928984016107a1565b03815f895af180156103eb578a929188916103bc575b505001968896919761035a565b90809293503d83116103e4575b6103d381836106ca565b810103126100c8578890868b6103af565b503d6103c9565b86513d5f823e3d90fd5b82346100c857610404366105ee565b91905f526006602052805f2080548310156100c85760209261042591610604565b91905490519160031b1c8152f35b82346100c8575f3660031901126100c8576005546001600160a01b0391908216331480156105e2575b6104659061062d565b6001928392600154169180519261047b8461066a565b6104836106ec565b845261048d61070b565b92602093602086015261049e61072a565b838601525f955b6104ab57005b600395868110156102085787965f5b8181106104cb5750508601956104a5565b90969197506104f986826104df8b8661074a565b518851633be70d2360e21b815293849283928984016107a1565b0381885afa9081156103eb575f916105b5575b508981156105ad5750855163eb44fdd360e01b81528481018290525f81602481895afa9081156105a357908b9392915f91610581575b5060c0810151159081610572575b50610563575b505b0195889791966104ba565b61056c9061094f565b8a610556565b6080915001514210158c610550565b61059d91503d805f833e61059581836106ca565b8101906107e7565b8c610542565b87513d5f823e3d90fd5b919050610558565b90508681813d83116105db575b6105cc81836106ca565b810103126100c857518a61050c565b503d6105c2565b505f548216331461045c565b60409060031901126100c8576004359060243590565b8054821015610619575f5260205f2001905f90565b634e487b7160e01b5f52603260045260245ffd5b1561063457565b60405162461bcd60e51b815260206004820152600e60248201526d29a29d103737ba1035b2b2b832b960911b6044820152606490fd5b6060810190811067ffffffffffffffff82111761068657604052565b634e487b7160e01b5f52604160045260245ffd5b67ffffffffffffffff811161068657604052565b6040810190811067ffffffffffffffff82111761068657604052565b90601f8019910116810190811067ffffffffffffffff82111761068657604052565b604051906106f9826106ae565b600382526242544360e81b6020830152565b60405190610718826106ae565b600382526208aa8960eb1b6020830152565b60405190610737826106ae565b60048252631253925560e21b6020830152565b9060038110156106195760051b0190565b5f5b83811061076c5750505f910152565b818101518382015260200161075d565b906020916107958151809281855285808601910161075b565b601f01601f1916010190565b9291906107b69060408552604085019061077c565b9260038210156107c65760200152565b634e487b7160e01b5f52602160045260245ffd5b519081151582036100c857565b9060209081838203126100c857825167ffffffffffffffff938482116100c85701916101409384848403126100c857604051948501858110828211176106865760405283518552818401518181116100c85784019083601f830112156100c85781519081116106865760405193610867601f8301601f19168501866106ca565b8185528382840101116100c8576108839183808601910161075b565b830152604081015160038110156100c8576040830152606081015160608301526080810151608083015260a081015160a08301526108c360c082016107da565b60c08301526108d460e082016107da565b60e08301526101008082015190830152610120809101519082015290565b156108f957565b60405162461bcd60e51b815260206004820152600d60248201526c29a29d103737ba1037bbb732b960991b6044820152606490fd5b9190820180921161093b57565b634e487b7160e01b5f52601160045260245ffd5b6001545f608081905260405163eb44fdd360e01b8152600481018490529193929190816024816001600160a01b0388165afa908115610ff2575f916110a3575b5060c08101516110685760808101514210611031576109dc90602060018060a01b03600454168183015190604051808096819463524f388960e01b8352866004840152602483019061077c565b03915afa918215610ff2575f92610ffd575b5060a08101518211906001600160a01b0386163b156100c85760405163506034e160e01b81526004810185905260248101839052604481018490525f81606481836001600160a01b038c165af18015610ff257610fdf575b508115610fd357610100810151915b8015610fc757610120820151965b60808051600254888252600660205291516040812091996001600160a01b039093169891978a9492915b8954811015610da4578a6101806024610aa6848e610604565b91905491604051948593849263eb02c30160e01b845260031b1c60048301525afa908115610b935760805191610cae575b5060e0810151610ca557606081015115158814908180610c9c575b610ba0575b50610b02828c610604565b90549060031b1c908c3b15610b8d5760405191630b2b595560e11b835260048301526024820152608051604482015260806064820152600a6084820152691cd95d1d1b195b595b9d60b21b60a48201528b8160c48160805193608051905af18015610b9357610b77575b506001905b01610a8d565b610b809061069a565b608051610b8d575f610b6c565b60805180fd5b6040513d608051823e3d90fd5b6080819e989e015197610bbe6101008c01516101208d01519061092e565b9889810299818b041490151715610c6c578b15610c8457610be2908c8a049061092e565b9d5f198114610c6c57600354602090920151600191909101986001600160a01b0392831692909116823b15610b8d5760405163ed2182cb60e01b8152608051928e900460048201526001600160a01b0390911660248201529182908180604481010391608051905af18015610b935715610af757610c5f9061069a565b608051610b8d575f610af7565b634e487b7160e01b6080515260116004526024608051fd5b634e487b7160e01b6080515260126004526024608051fd5b508a1515610af2565b50600190610b71565b9050610180813d61018011610d9c575b81610ccc61018093836106ca565b81010312610b8d57604051908161018081011067ffffffffffffffff610180840111176106865761018082016040528051825260208101516001600160a01b0381168103610b8d576020830152604081015160408301526060610d308183016107da565b908301526080810151608083015260a081015160a083015260c081015160c083015260e0610d5f8183016107da565b90830152610100610d718183016107da565b908301526101208082015190830152610140808201519083015261016080910151908201525f610ad7565b3d9150610cbe565b509598509650979194509780610efa575b50907f2ae75c3e3831a94490198dc767ffeb3b59d2c0e0333785e9a98697ab37a0c8aa93610df8939260208801519360405195869560a0875260a087019061077c565b9360208601526040850152606084015260808301520390a2602081015160408201516003811015610ee257604051634f27cd2360e11b815293602092859283918291610e4791600484016107a1565b608051919003926001600160a01b03165af1918215610b935760805192610eac575b50610ea760207f243d8c27f56efd56be97c47199729d30029fce1a6366ce5be1027c831acb4a0f92015160405191829160208352602083019061077c565b0390a2565b9091506020813d602011610eda575b81610ec8602093836106ca565b810103126100c8575190610ea7610e69565b3d9150610ebb565b634e487b7160e01b6080515260216004526024608051fd5b6002546003546001600160a01b039182169116813b15610b8d576040516302d2151b60e21b815260808051600483018690526001600160a01b0393909316602483015251909283916044918391905af18015610b9357610fb1575b506003546001600160a01b0316803b15610b8d576040519163e323459d60e01b835260048301528160248160805193608051905af18015610b935715610db557610fa2909392919361069a565b608051610b8d5790915f610db5565b610fba9061069a565b608051610b8d575f610f55565b61010082015196610a63565b61012081015191610a55565b610fe89061069a565b5f6080525f610a46565b6040513d5f823e3d90fd5b9091506020813d602011611029575b81611019602093836106ca565b810103126100c85751905f6109ee565b3d915061100c565b60405162461bcd60e51b815260206004820152600f60248201526e14d14e881b9bdd08195e1c1a5c9959608a1b6044820152606490fd5b60405162461bcd60e51b815260206004820152601360248201527214d14e88185b1c9958591e481cd95d1d1b1959606a1b6044820152606490fd5b6110b791503d805f833e61059581836106ca565b5f61098f56fea26469706673582212201c810d9fa832d14277a4f6a473eaabde521b381492b472c2d42e407a7d4efebb64736f6c63430008180033","linkReferences":{}},"methodIdentifiers":{"bootstrapMarkets()":"64488932","factory()":"c45a0155","keeper()":"aced1661","marketPositions(uint256,uint256)":"55a1a8dc","oracle()":"7dc0d1d0","owner()":"8da5cb5b","positionManager()":"791b98bc","registerPosition(uint256,uint256)":"af503ec9","setKeeper(address)":"748747e6","settle(uint256)":"8df82800","settleExpiredMarkets()":"46403cc6","vault()":"fbfa77cf"},"id":33}