{"abi":[{"type":"constructor","inputs":[{"name":"_oracle","type":"address","internalType":"address"},{"name":"_positionManager","type":"address","internalType":"address"},{"name":"_vault","type":"address","internalType":"address"}],"stateMutability":"nonpayable"},{"type":"function","name":"activeOrderIds","inputs":[{"name":"","type":"uint256","internalType":"uint256"}],"outputs":[{"name":"","type":"uint256","internalType":"uint256"}],"stateMutability":"view"},{"type":"function","name":"checkAndExecute","inputs":[],"outputs":[],"stateMutability":"nonpayable"},{"type":"function","name":"getActiveOrderCount","inputs":[],"outputs":[{"name":"","type":"uint256","internalType":"uint256"}],"stateMutability":"view"},{"type":"function","name":"keeper","inputs":[],"outputs":[{"name":"","type":"address","internalType":"address"}],"stateMutability":"view"},{"type":"function","name":"oracle","inputs":[],"outputs":[{"name":"","type":"address","internalType":"address"}],"stateMutability":"view"},{"type":"function","name":"orders","inputs":[{"name":"","type":"uint256","internalType":"uint256"}],"outputs":[{"name":"positionId","type":"uint256","internalType":"uint256"},{"name":"trader","type":"address","internalType":"address"},{"name":"symbol","type":"string","internalType":"string"},{"name":"higher","type":"bool","internalType":"bool"},{"name":"stopLossPrice","type":"uint256","internalType":"uint256"},{"name":"takeProfitPrice","type":"uint256","internalType":"uint256"},{"name":"active","type":"bool","internalType":"bool"}],"stateMutability":"view"},{"type":"function","name":"owner","inputs":[],"outputs":[{"name":"","type":"address","internalType":"address"}],"stateMutability":"view"},{"type":"function","name":"positionManager","inputs":[],"outputs":[{"name":"","type":"address","internalType":"address"}],"stateMutability":"view"},{"type":"function","name":"registerOrder","inputs":[{"name":"positionId","type":"uint256","internalType":"uint256"},{"name":"trader","type":"address","internalType":"address"},{"name":"symbol","type":"string","internalType":"string"},{"name":"higher","type":"bool","internalType":"bool"},{"name":"slPrice","type":"uint256","internalType":"uint256"},{"name":"tpPrice","type":"uint256","internalType":"uint256"}],"outputs":[],"stateMutability":"nonpayable"},{"type":"function","name":"setKeeper","inputs":[{"name":"k","type":"address","internalType":"address"}],"outputs":[],"stateMutability":"nonpayable"},{"type":"function","name":"setPayouts","inputs":[{"name":"sl","type":"uint256","internalType":"uint256"},{"name":"tp","type":"uint256","internalType":"uint256"}],"outputs":[],"stateMutability":"nonpayable"},{"type":"function","name":"slPayoutBps","inputs":[],"outputs":[{"name":"","type":"uint256","internalType":"uint256"}],"stateMutability":"view"},{"type":"function","name":"tpPayoutBps","inputs":[],"outputs":[{"name":"","type":"uint256","internalType":"uint256"}],"stateMutability":"view"},{"type":"function","name":"vault","inputs":[],"outputs":[{"name":"","type":"address","internalType":"address"}],"stateMutability":"view"},{"type":"event","name":"OrderRegistered","inputs":[{"name":"positionId","type":"uint256","indexed":true,"internalType":"uint256"},{"name":"sl","type":"uint256","indexed":false,"internalType":"uint256"},{"name":"tp","type":"uint256","indexed":false,"internalType":"uint256"}],"anonymous":false},{"type":"event","name":"StopLossTriggered","inputs":[{"name":"positionId","type":"uint256","indexed":true,"internalType":"uint256"},{"name":"currentPrice","type":"uint256","indexed":false,"internalType":"uint256"}],"anonymous":false},{"type":"event","name":"TakeProfitTriggered","inputs":[{"name":"positionId","type":"uint256","indexed":true,"internalType":"uint256"},{"name":"currentPrice","type":"uint256","indexed":false,"internalType":"uint256"}],"anonymous":false}],"bytecode":{"object":"0x6080346100bf57601f61108838819003918201601f19168301916001600160401b038311848410176100c3578084926060946040528339810103126100bf57610047816100d7565b906100606040610059602084016100d7565b92016100d7565b6107d060085561465060095560018060a01b03199233845f5416175f5560018060a01b039283809216856001541617600155168360025416176002551681600354161760035533906004541617600455604051610f9c90816100ec8239f35b5f80fd5b634e487b7160e01b5f52604160045260245ffd5b51906001600160a01b03821682036100bf5756fe6080806040526004361015610012575f80fd5b5f3560e01c908163286f904b1461067257508063528ca81e14610655578063697a5d9514610622578063748747e6146105d1578063791b98bc146105a95780637dc0d1d014610581578063815395fc146105645780638da5cb5b1461053d578063a85c38ef14610410578063aced1661146103e8578063de17553e14610136578063e4d1861c14610119578063eabc1bb7146100e25763fbfa77cf146100b6575f80fd5b346100de575f3660031901126100de576003546040516001600160a01b039091168152602090f35b5f80fd5b346100de5760203660031901126100de576004356006548110156100de5761010b602091610b12565b90546040519160031b1c8152f35b346100de575f3660031901126100de576020600954604051908152f35b346100de575f3660031901126100de576004546001600160a01b0316331480156103d5575b1561039d57600654805b61016b57005b5f190161017781610b12565b905490818160031b1c5f52600560205260405f20918360ff60068501541615610394575060015460405163524f388960e01b8152602060048201526002850180549195926001600160a01b03169186915f91906101d382610a36565b918260248601526001811690815f1461036f5750600114610334575b505091818060209403915afa9081156103295785945f926102f2575b505f809160ff6003820154165f14610298576004810154801515908161028d575b5015610260575050506001916001925b61024a575b50505050610165565b6102579360031b1c610bcd565b82808080610241565b600501549193918015159081610282575b501561023c57505f9250600161023c565b905083101588610271565b90508411158961022c565b600481015480151590816102e7575b50156102bb5750505060019160019261023c565b6005015491939180151590816102dc57501561023c57505f9250600161023c565b905083111588610271565b9050841015896102a7565b945090506020843d602011610321575b8161030f60209383610ab2565b810103126100de57849351908661020b565b3d9150610302565b6040513d5f823e3d90fd5b5f908152602081209092505b818310610355575050810160440181806101ef565b80546044848b010152889350602090920191600101610340565b60ff191660448087019190915292151560051b850190920192508391508190506101ef565b92505050610165565b60405162461bcd60e51b815260206004820152601060248201526f29a62a281d103737ba1035b2b2b832b960811b6044820152606490fd5b505f546001600160a01b0316331461015b565b346100de575f3660031901126100de576004546040516001600160a01b039091168152602090f35b346100de576020806003193601126100de576004355f526005815260405f2080549060019060018060a01b036001820154169084600282016040519485915f9181549161045c83610a36565b808652926001811690811561051a57506001146104dc575b50505061048392500384610ab2565b60ff600382015416926104bf60048301549160ff600660058601549501541694604051988998895288015260e0604088015260e0870190610ad4565b9315156060860152608085015260a0840152151560c08301520390f35b5f90815285812095935091905b8183106105025750899450508201016104838980610474565b855489840185015294850194889450918301916104e9565b9250505061048394925060ff191682840152151560051b82010187928980610474565b346100de575f3660031901126100de575f546040516001600160a01b039091168152602090f35b346100de575f3660031901126100de576020600654604051908152f35b346100de575f3660031901126100de576001546040516001600160a01b039091168152602090f35b346100de575f3660031901126100de576002546040516001600160a01b039091168152602090f35b346100de5760203660031901126100de576004356001600160a01b03818116918290036100de57610606905f54163314610b5b565b6bffffffffffffffffffffffff60a01b60045416176004555f80f35b346100de5760403660031901126100de5761064760018060a01b035f54163314610b5b565b600435600855602435600955005b346100de575f3660031901126100de576020600854604051908152f35b346100de5760c03660031901126100de57600435906001600160a01b0360248035828116939291908490036100de5760443567ffffffffffffffff928382116100de57366023830112156100de578160040135958487116100de57368488850101116100de57606435968715158098036100de576084359760a4359784600254163303610a06575088158015906109fd575b156109c5576040519460e08601868110898211176109b257908b9695949392916040528686526020988987019485525f8a601f1995808c60405196610750858b601f8601160189610ab2565b828852018387013784010152604087019182526060870192835260808701938c855260a08801958c875260c089019760019a8b8a525f5260058d5260405f2099518a558a8a019151166bffffffffffffffffffffffff60a01b825416179055600288019251805192831161099f578b6107c98554610a36565b601f8111610957575b50508b91601f84116001146108e5575092826108269360069896936108489b9a98965f926108da575b50505f19600383901b1c1916908b1b1790555b511515600387019060ff801983541691151516179055565b51600485015551600584015551151591019060ff801983541691151516179055565b60065491865f52600784528260405f2055680100000000000000008310156108c75750916108bc866108a4847f673f9dc6c34453abb5639f0d2cd926b21c1199a323ad2036a732f48b63b8010798966040989601600655610b12565b90919082549060031b91821b915f19901b1916179055565b8351928352820152a2005b634e487b7160e01b5f9081526041600452fd5b015190505f806107fb565b918c9184938c9516865f52835f20935f905b828210610940575050926108269592859260069b99966108489e9d9b999610610928575b505050811b01905561080e565b01515f1960f88460031b161c191690555f808061091b565b8385015186558e979095019493840193018f6108f7565b855f52815f2090601f860160051c8201928610610995575b601f0160051c01908b905b82811061098a57508d91506107d2565b5f8155018b9061097a565b909150819061096f565b8a634e487b7160e01b5f5260416004525ffd5b87634e487b7160e01b5f5260416004525ffd5b60405162461bcd60e51b815260206004820152601181880152700534c54503a206e6f20534c206f7220545607c1b6044820152606490fd5b50871515610704565b62461bcd60e51b815260206004820152600c878201526b534c54503a206e6f7420504d60a01b6044820152606490fd5b90600182811c92168015610a64575b6020831014610a5057565b634e487b7160e01b5f52602260045260245ffd5b91607f1691610a45565b67ffffffffffffffff8111610a8257604052565b634e487b7160e01b5f52604160045260245ffd5b6040810190811067ffffffffffffffff821117610a8257604052565b90601f8019910116810190811067ffffffffffffffff821117610a8257604052565b91908251928382525f5b848110610afe575050825f602080949584010152601f8019910116010190565b602081830181015184830182015201610ade565b600654811015610b475760065f527ff652222313e28459528d920b65115c16c04f3efc82aaedc97be59f3f377c0d3f01905f90565b634e487b7160e01b5f52603260045260245ffd5b15610b6257565b60405162461bcd60e51b815260206004820152600f60248201526e29a62a281d103737ba1037bbb732b960891b6044820152606490fd5b519081151582036100de57565b81810292918115918404141715610bb957565b634e487b7160e01b5f52601160045260245ffd5b91600254905f60018060a01b03809316604093845163eb02c30160e01b81528760048201526101808082602481875afa918215610ec7575f92610ded575b505060e0810151610ddb578415610dc157612710610c30608083015160085490610ba6565b045b8515610d98578651610c4381610a96565b600981526873746f705f6c6f737360b81b6020820152925b6020816003541693015116823b156100de5760445f92838a51958694859363ed2182cb60e01b8552600485015260248401525af18015610d8e57610d7b575b50813b15610d7757610cdf839283928751948580948193630b2b595560e11b83528d60048401528a156024840152836044840152608060648401526084830190610ad4565b03925af18015610d6d57610d56575b5050610cf984610ed1565b15610d2a577f84f286df5a264707bc5e32ccd269f47ddd90c52ff6d1753459246a4dded9b9e59160209151908152a2565b7ff639292f19ded193a6a0c89b0ad121e9efadbdba6526208c0d98b92e9533dea89160209151908152a2565b610d608291610a6e565b610d6a5780610cee565b80fd5b84513d84823e3d90fd5b8280fd5b610d86919350610a6e565b5f915f610c9a565b86513d5f823e3d90fd5b8651610da381610a96565b600b81526a1d185ad957dc1c9bd99a5d60aa1b602082015292610c5b565b612710610dd5608083015160095490610ba6565b04610c32565b50505050505050610deb90610ed1565b565b9080925081813d8311610ec0575b610e058183610ab2565b810103126100de57865191820182811067ffffffffffffffff821117610a8257875280518252602081015183811681036100de5760208301528681015187830152610e5260608201610b99565b60608301526080810151608083015260a081015160a083015260c081015160c0830152610e8160e08201610b99565b60e0830152610100610e94818301610b99565b908301526101208082015190830152610140808201519083015261016080910151908201525f80610c0b565b503d610dfb565b87513d5f823e3d90fd5b5f526005602052600660405f200160ff198154169055600760205260405f2054600654905f1991828101908111610bb957610f0b90610b12565b90549060031b1c610f1f816108a484610b12565b5f52600760205260405f20556006548015610f5257810190610f4082610b12565b909182549160031b1b19169055600655565b634e487b7160e01b5f52603160045260245ffdfea2646970667358221220ce3cf1717358dcb244294863984aa9b31bb1a78e74aa875c8ee546452a5c74b764736f6c63430008180033","linkReferences":{}},"methodIdentifiers":{"activeOrderIds(uint256)":"eabc1bb7","checkAndExecute()":"de17553e","getActiveOrderCount()":"815395fc","keeper()":"aced1661","oracle()":"7dc0d1d0","orders(uint256)":"a85c38ef","owner()":"8da5cb5b","positionManager()":"791b98bc","registerOrder(uint256,address,string,bool,uint256,uint256)":"286f904b","setKeeper(address)":"748747e6","setPayouts(uint256,uint256)":"697a5d95","slPayoutBps()":"528ca81e","tpPayoutBps()":"e4d1861c","vault()":"fbfa77cf"},"id":32}