{"abi":[{"type":"constructor","inputs":[{"name":"_oracle","type":"address","internalType":"address"},{"name":"_positionManager","type":"address","internalType":"address"},{"name":"_vault","type":"address","internalType":"address"}],"stateMutability":"nonpayable"},{"type":"function","name":"activeOrderIds","inputs":[{"name":"","type":"uint256","internalType":"uint256"}],"outputs":[{"name":"","type":"uint256","internalType":"uint256"}],"stateMutability":"view"},{"type":"function","name":"checkAndExecute","inputs":[],"outputs":[],"stateMutability":"nonpayable"},{"type":"function","name":"getActiveOrderCount","inputs":[],"outputs":[{"name":"","type":"uint256","internalType":"uint256"}],"stateMutability":"view"},{"type":"function","name":"keeper","inputs":[],"outputs":[{"name":"","type":"address","internalType":"address"}],"stateMutability":"view"},{"type":"function","name":"oracle","inputs":[],"outputs":[{"name":"","type":"address","internalType":"address"}],"stateMutability":"view"},{"type":"function","name":"orders","inputs":[{"name":"","type":"uint256","internalType":"uint256"}],"outputs":[{"name":"positionId","type":"uint256","internalType":"uint256"},{"name":"trader","type":"address","internalType":"address"},{"name":"symbol","type":"string","internalType":"string"},{"name":"higher","type":"bool","internalType":"bool"},{"name":"stopLossPrice","type":"uint256","internalType":"uint256"},{"name":"takeProfitPrice","type":"uint256","internalType":"uint256"},{"name":"active","type":"bool","internalType":"bool"}],"stateMutability":"view"},{"type":"function","name":"owner","inputs":[],"outputs":[{"name":"","type":"address","internalType":"address"}],"stateMutability":"view"},{"type":"function","name":"positionManager","inputs":[],"outputs":[{"name":"","type":"address","internalType":"address"}],"stateMutability":"view"},{"type":"function","name":"registerOrder","inputs":[{"name":"positionId","type":"uint256","internalType":"uint256"},{"name":"trader","type":"address","internalType":"address"},{"name":"symbol","type":"string","internalType":"string"},{"name":"higher","type":"bool","internalType":"bool"},{"name":"slPrice","type":"uint256","internalType":"uint256"},{"name":"tpPrice","type":"uint256","internalType":"uint256"}],"outputs":[],"stateMutability":"nonpayable"},{"type":"function","name":"setKeeper","inputs":[{"name":"k","type":"address","internalType":"address"}],"outputs":[],"stateMutability":"nonpayable"},{"type":"function","name":"setPayouts","inputs":[{"name":"sl","type":"uint256","internalType":"uint256"},{"name":"tp","type":"uint256","internalType":"uint256"}],"outputs":[],"stateMutability":"nonpayable"},{"type":"function","name":"slPayoutBps","inputs":[],"outputs":[{"name":"","type":"uint256","internalType":"uint256"}],"stateMutability":"view"},{"type":"function","name":"tpPayoutBps","inputs":[],"outputs":[{"name":"","type":"uint256","internalType":"uint256"}],"stateMutability":"view"},{"type":"function","name":"vault","inputs":[],"outputs":[{"name":"","type":"address","internalType":"address"}],"stateMutability":"view"},{"type":"event","name":"OrderRegistered","inputs":[{"name":"positionId","type":"uint256","indexed":true,"internalType":"uint256"},{"name":"sl","type":"uint256","indexed":false,"internalType":"uint256"},{"name":"tp","type":"uint256","indexed":false,"internalType":"uint256"}],"anonymous":false},{"type":"event","name":"StopLossTriggered","inputs":[{"name":"positionId","type":"uint256","indexed":true,"internalType":"uint256"},{"name":"currentPrice","type":"uint256","indexed":false,"internalType":"uint256"}],"anonymous":false},{"type":"event","name":"TakeProfitTriggered","inputs":[{"name":"positionId","type":"uint256","indexed":true,"internalType":"uint256"},{"name":"currentPrice","type":"uint256","indexed":false,"internalType":"uint256"}],"anonymous":false}],"bytecode":{"object":"0x60806040526107d060085561465060095534801561001b575f80fd5b506040516111c73803806111c783398101604081905261003a916100b0565b5f8054336001600160a01b031991821681179092556001805482166001600160a01b039687161790556002805482169486169490941790935560038054841692909416919091179092556004805490911690911790556100f0565b80516001600160a01b03811681146100ab575f80fd5b919050565b5f805f606084860312156100c2575f80fd5b6100cb84610095565b92506100d960208501610095565b91506100e760408501610095565b90509250925092565b6110ca806100fd5f395ff3fe608060405234801561000f575f80fd5b50600436106100e5575f3560e01c80638da5cb5b11610088578063de17553e11610063578063de17553e146101d1578063e4d1861c146101d9578063eabc1bb7146101e2578063fbfa77cf146101f5575f80fd5b80638da5cb5b14610186578063a85c38ef14610198578063aced1661146101be575f80fd5b8063748747e6116100c3578063748747e61461012d578063791b98bc146101405780637dc0d1d01461016b578063815395fc1461017e575f80fd5b8063286f904b146100e9578063528ca81e146100fe578063697a5d951461011a575b5f80fd5b6100fc6100f7366004610b47565b610208565b005b61010760085481565b6040519081526020015b60405180910390f35b6100fc610128366004610bf1565b610436565b6100fc61013b366004610c11565b61048c565b600254610153906001600160a01b031681565b6040516001600160a01b039091168152602001610111565b600154610153906001600160a01b031681565b600654610107565b5f54610153906001600160a01b031681565b6101ab6101a6366004610c33565b6104f9565b6040516101119796959493929190610c8d565b600454610153906001600160a01b031681565b6100fc6105ca565b61010760095481565b6101076101f0366004610c33565b6107c5565b600354610153906001600160a01b031681565b6002546001600160a01b031633146102565760405162461bcd60e51b815260206004820152600c60248201526b534c54503a206e6f7420504d60a01b60448201526064015b60405180910390fd5b5f82118061026357505f81115b6102a35760405162461bcd60e51b81526020600482015260116024820152700534c54503a206e6f20534c206f7220545607c1b604482015260640161024d565b6040518060e00160405280888152602001876001600160a01b0316815260200186868080601f0160208091040260200160405190810160405280939291908181526020018383808284375f920182905250938552505050851515602080840191909152604080840187905260608401869052600160809094018490528b83526005825291829020845181559084015192810180546001600160a01b0319166001600160a01b039094169390931790925582015160028201906103659082610d78565b50606082015160038201805491151560ff199283161790556080830151600483015560a0830151600583015560c09092015160069182018054911515919093161790915580545f898152600760205260408082208390556001830184559290527ff652222313e28459528d920b65115c16c04f3efc82aaedc97be59f3f377c0d3f018890555187907f673f9dc6c34453abb5639f0d2cd926b21c1199a323ad2036a732f48b63b80107906104259085908590918252602082015260400190565b60405180910390a250505050505050565b5f546001600160a01b031633146104815760405162461bcd60e51b815260206004820152600f60248201526e29a62a281d103737ba1037bbb732b960891b604482015260640161024d565b600891909155600955565b5f546001600160a01b031633146104d75760405162461bcd60e51b815260206004820152600f60248201526e29a62a281d103737ba1037bbb732b960891b604482015260640161024d565b600480546001600160a01b0319166001600160a01b0392909216919091179055565b60056020525f908152604090208054600182015460028301805492936001600160a01b039092169261052a90610cf2565b80601f016020809104026020016040519081016040528092919081815260200182805461055690610cf2565b80156105a15780601f10610578576101008083540402835291602001916105a1565b820191905f5260205f20905b81548152906001019060200180831161058457829003601f168201915b505050600384015460048501546005860154600690960154949560ff9283169591945092501687565b6004546001600160a01b03163314806105ec57505f546001600160a01b031633145b61062b5760405162461bcd60e51b815260206004820152601060248201526f29a62a281d103737ba1035b2b2b832b960811b604482015260640161024d565b6006545b80156107c2578061063f81610e48565b9150505f6006828154811061065657610656610e5d565b5f9182526020808320909101548083526005909152604090912060068101549192509060ff1661068757505061062f565b60015460405163524f388960e01b81525f916001600160a01b03169063524f3889906106ba906002860190600401610e71565b602060405180830381865afa1580156106d5573d5f803e3d5ffd5b505050506040513d601f19601f820116820180604052508101906106f99190610ef6565b60038301549091505f90819060ff161561075c575f8460040154118015610724575083600401548311155b15610734575060019050806107a6565b5f846005015411801561074b575083600501548310155b156107575750600190505f5b6107a6565b5f8460040154118015610773575083600401548310155b15610783575060019050806107a6565b5f846005015411801561079a575083600501548311155b156107a65750600190505f5b81156107b8576107b8858585846107e4565b505050505061062f565b50565b600681815481106107d4575f80fd5b5f91825260209091200154905081565b60025460405163eb02c30160e01b8152600481018690526001600160a01b03909116905f90829063eb02c3019060240161018060405180830381865afa158015610830573d5f803e3d5ffd5b505050506040513d601f19601f820116820180604052508101906108549190610f4d565b90508060e00151156108705761086986610a68565b5050610a62565b5f8361089a57612710600954836080015161088b9190611001565b610895919061101e565b6108b9565b61271060085483608001516108af9190611001565b6108b9919061101e565b90505f846108ea576040518060400160405280600b81526020016a1d185ad957dc1c9bd99a5d60aa1b81525061090d565b6040518060400160405280600981526020016873746f705f6c6f737360b81b8152505b600354602085015160405163ed2182cb60e01b8152600481018690526001600160a01b039182166024820152929350169063ed2182cb906044015f604051808303815f87803b15801561095e575f80fd5b505af1158015610970573d5f803e3d5ffd5b5050604051630b2b595560e11b81526001600160a01b0387169250631656b2aa91506109a7908b908915905f90879060040161103d565b5f604051808303815f87803b1580156109be575f80fd5b505af11580156109d0573d5f803e3d5ffd5b505050506109dd88610a68565b8415610a2257877f84f286df5a264707bc5e32ccd269f47ddd90c52ff6d1753459246a4dded9b9e587604051610a1591815260200190565b60405180910390a2610a5d565b877ff639292f19ded193a6a0c89b0ad121e9efadbdba6526208c0d98b92e9533dea887604051610a5491815260200190565b60405180910390a25b505050505b50505050565b5f8181526005602090815260408083206006908101805460ff191690556007909252822054815490929190610a9f9060019061106d565b81548110610aaf57610aaf610e5d565b905f5260205f20015490508060068381548110610ace57610ace610e5d565b5f9182526020808320909101929092558281526007909152604090208290556006805480610afe57610afe611080565b600190038181905f5260205f20015f90559055505050565b6001600160a01b03811681146107c2575f80fd5b80151581146107c2575f80fd5b8035610b4281610b2a565b919050565b5f805f805f805f60c0888a031215610b5d575f80fd5b873596506020880135610b6f81610b16565b9550604088013567ffffffffffffffff80821115610b8b575f80fd5b818a0191508a601f830112610b9e575f80fd5b813581811115610bac575f80fd5b8b6020828501011115610bbd575f80fd5b602083019750809650505050610bd560608901610b37565b92506080880135915060a0880135905092959891949750929550565b5f8060408385031215610c02575f80fd5b50508035926020909101359150565b5f60208284031215610c21575f80fd5b8135610c2c81610b16565b9392505050565b5f60208284031215610c43575f80fd5b5035919050565b5f81518084525f5b81811015610c6e57602081850181015186830182015201610c52565b505f602082860101526020601f19601f83011685010191505092915050565b8781526001600160a01b038716602082015260e0604082018190525f90610cb690830188610c4a565b951515606083015250608081019390935260a0830191909152151560c0909101529392505050565b634e487b7160e01b5f52604160045260245ffd5b600181811c90821680610d0657607f821691505b602082108103610d2457634e487b7160e01b5f52602260045260245ffd5b50919050565b601f821115610d73575f81815260208120601f850160051c81016020861015610d505750805b601f850160051c820191505b81811015610d6f57828155600101610d5c565b5050505b505050565b815167ffffffffffffffff811115610d9257610d92610cde565b610da681610da08454610cf2565b84610d2a565b602080601f831160018114610dd9575f8415610dc25750858301515b5f19600386901b1c1916600185901b178555610d6f565b5f85815260208120601f198616915b82811015610e0757888601518255948401946001909101908401610de8565b5085821015610e2457878501515f19600388901b60f8161c191681555b5050505050600190811b01905550565b634e487b7160e01b5f52601160045260245ffd5b5f81610e5657610e56610e34565b505f190190565b634e487b7160e01b5f52603260045260245ffd5b5f60208083525f8454610e8381610cf2565b8084870152604060018084165f8114610ea35760018114610ebd57610ee8565b60ff1985168984015283151560051b890183019550610ee8565b895f52865f205f5b85811015610ee05781548b8201860152908301908801610ec5565b8a0184019650505b509398975050505050505050565b5f60208284031215610f06575f80fd5b5051919050565b604051610180810167ffffffffffffffff81118282101715610f3157610f31610cde565b60405290565b8051610b4281610b16565b8051610b4281610b2a565b5f6101808284031215610f5e575f80fd5b610f66610f0d565b82518152610f7660208401610f37565b602082015260408301516040820152610f9160608401610f42565b60608201526080830151608082015260a083015160a082015260c083015160c0820152610fc060e08401610f42565b60e0820152610100610fd3818501610f42565b9082015261012083810151908201526101408084015190820152610160928301519281019290925250919050565b808202811582820484141761101857611018610e34565b92915050565b5f8261103857634e487b7160e01b5f52601260045260245ffd5b500490565b8481528315156020820152826040820152608060608201525f6110636080830184610c4a565b9695505050505050565b8181038181111561101857611018610e34565b634e487b7160e01b5f52603160045260245ffdfea2646970667358221220a5231e6226efb4fda3d406c3025bf738c16b5b20795938dd28e52386a4a8e43b64736f6c63430008140033","linkReferences":{}},"methodIdentifiers":{"activeOrderIds(uint256)":"eabc1bb7","checkAndExecute()":"de17553e","getActiveOrderCount()":"815395fc","keeper()":"aced1661","oracle()":"7dc0d1d0","orders(uint256)":"a85c38ef","owner()":"8da5cb5b","positionManager()":"791b98bc","registerOrder(uint256,address,string,bool,uint256,uint256)":"286f904b","setKeeper(address)":"748747e6","setPayouts(uint256,uint256)":"697a5d95","slPayoutBps()":"528ca81e","tpPayoutBps()":"e4d1861c","vault()":"fbfa77cf"},"id":29}